S01800004F4C45445F4932435275735F746573742E7372656372
S11300000C9432010C945A010C945A010C945A0128
S11300100C945A010C945A010C945A010C945A01F0
S11300200C945A010C945A010C945A010C945A01E0
S11300300C945A010C945A010C945A010C945A01D0
S11300400C94860B0C945A010C945A010C945A018A
S11300500C945A010C945A010C945A010C945A01B0
S11300600C9455160C945A01280FA10E2C0FA40EB3
S1130070A70EAB0EAE0EB10E260F260FB40EB70EA2
S1130080BA0EBD0EC00EC30E300FD10ED40E260F05
S1130090D80EDC0EDF0EE20EE50E260F130FE80E6F
S11300A0EB0EEE0EF10EF40E340F020F050F090FD6
S11300B00C0F260F100F130F170F1B0F1F0F230FFB
S11300C08013E613E613E613E613E613E613E613CA
S11300D0E613E613E613E613E613E613E613E61354
S11300E0E613E613E613E613E613E613E613E61344
S11300F0E613E613E613E613E613E613E613E61334
S1130100E613E613E613E613E613E613E613E61323
S1130110E613E613E613E613E613E613E613E61313
S1130120E613E613E613E613E613E613E613E61303
S1130130E613E613E613E613E613E613E613E613F3
S1130140E613E613E613E613E613E613E613E613E3
S1130150E613E613E613E613E613E613E613E613D3
S1130160261329132C132F133213351338133B136F
S11301703E134113441347134A134D13501353139F
S1130180561359135C135F136213651368136B13CF
S11301906E137113741377137A137D1380138313FF
S11301A0861389138C138F139213951398139B132F
S11301B09E13A113A413A713AA13AD13B013B3135F
S11301C0B613B913BC13BF13C213C513C813CB138F
S11301D0CE13D113D413D713DA13DD13E013E313BF
S11301E0E613E613E613E613E613E613E613E61343
S11301F0E613E613E613E613E613E613E613E61333
S11302001413141300000008000201000003040783
S113021000000000000000000102040810204080DB
S1130220010204081020010204081020040404043C
S1130230040404040202020202020303030303038C
S11302400000000023002600290000000000250013
S113025028002B0000000000240027002A00DC03F3
S11302607F0A9A1511241FBECFEFD8E0DEBFCDBFA1
S113027012E0A0E0B1E0ECE1F2E302C005900D92DF
S1130280A836B107D9F724E0A8E6B2E001C01D9270
S1130290A831B207E1F711E0C2E3D1E004C021972D
S11302A0FE010E94B817CF32D107C9F70E94930A02
S11302B00C940C190C94000062E080E10E94AC0CD8
S11302C062E081E10E94AC0C62E08FE00E94AC0C21
S11302D062E08EE00E94AC0C61E087E00E94AC0C0E
S11302E061E086E00C94AC0CE82FF0E0EE0FFF1F09
S11302F0E659FD4F8081918108950E94641461E064
S11303008AE00E94AC0C61E08AE00E94E80C80EF75
S113031092E00E941B1041E06DE080EF92E00E94A9
S1130320840E80EF92E00C94810ECF92DF92EF92D4
S1130330FF9260ED72E080EF92E00E9420128091C3
S1130340D0029091D102909369028093680287321F
S1130350910509F423C1E4F4803E20EE920709F4E8
S113036001C1803A31EE930709F4ACC0803A904E53
S113037009F04DC18091DB0290E0982F88272091ED
S1130380DA02820F911D90939102809390023FC1F3
S1130390813832E0930789F19CF48138914009F067
S11303A036C12091DB028091DA0290E030E1239F94
S11303B0800D911D112490939B0280939A0227C172
S11303C0813823E0920709F46AC08138944009F027
S11303D01EC12091D8028091D90290E0820F911D14
S11303E02091DA02820F911D2091DB02820F911D70
S11303F090937F0280937E020AC16091DB0270E0D9
S1130400762F66278091DA02680F711D072E000C83
S1130410880B990B0E940A1820E030E040E85DE365
S11304200E9496180E94D2176B017C0170937B0284
S113043060937A026091D90270E0762F66278091EA
S1130440D802680F711D072E000C880B990B0E94AF
S11304500A1820E030E040E85DE30E9496180E940C
S1130460D21770937902609378026C9D90016D9D10
S1130470300D7C9D300D1124B901330F880B990B7D
S11304800E940A182AE037ED43E25CE30E949618C2
S11304900E94D21770937D0260937C02B8C0809151
S11304A0DE0290E090938902809388022091DA0220
S11304B08091DB0290E0820F911D90938B028093D8
S11304C08A02A5C06091D90270E0762F66278091D8
S11304D0D802680F711D072E000C880B990B0E941F
S11304E00A182DEC3CEC4CEC5DE30E9496180E943B
S11304F0D2176B017C017093730260937202609156
S1130500DB0270E0762F66278091DA02680F711D96
S1130510072E000C880B990B0E940A182DEC3CEC5A
S11305204CEC5DE30E9496180E94D21770937502FA
S1130530609374026C9D90016D9D300D7C9D300D17
S11305401124C90168EE73E00E9482177093770248
S1130550609376028091DE0290E090938102809312
S1130560800255C08091DA02282F30E030936D026A
S113057020936C029091DB02292F30E030936F02BC
S113058020936E02899FC001112468EE73E00E94DB
S11305908217709371026093700239C08091D802FF
S11305A090E090936B0280936A028091DF02982F0F
S11305B09170909396021092970281FB992790F97B
S11305C0909398021092990282FB992790F9909344
S11305D08C0210928D0283FB992790F990938E02DE
S11305E010928F0284FB992790F9909392021092B3
S11305F0930285FB992790F99093940210929502A7
S113060086FB882780F980939C0210929D02FF90BC
S1130610EF90DF90CF900895CF92DF92EF92FF9208
S11306200F931F9388E290E0AFEFB8E18093E0026C
S11306309093E102A093E202B093E30288E08093F6
S1130640E402E9EEF2E0119242E0E03FF407D9F768
S113065080E10E94170D909303018093020181E1D0
S11306600E94170D909301018093000120910201D3
S113067030910301232B51F42091AC023091AD024F
S11306802130310519F421E02093E802019741F467
S11306908091AA029091AB02892B11F41092E80286
S11306A081E10E94170D9093AB028093AA0280E12E
S11306B00E94170D9093AD028093AC020E94D00B60
S11306C06093A6027093A7028093A8029093A90254
S11306D00091A2021091A3022091A4023091A502DC
S11306E06B017C01C01AD10AE20AF30A44EFC41672
S11306F041E0D406E104F104D0F06093A2027093C7
S1130700A3028093A4029093A5026AE070E080E0C3
S113071090E00E94010C60EE72E080EF92E01F9185
S11307200F91FF90EF90DF90CF900C942B111F91BD
S11307300F91FF90EF90DF90CF90089560ED72E0FD
S113074080EF92E00E9420128091D0029091D10219
S113075090936902809368020895E0ECF2E080EAE5
S113076096E0A0E0B0E080839183A283B38388E025
S11307708483108681E08187128613861486158609
S113078016861786BF0180EF92E00C942B1160EB64
S113079072E080EF92E00E9420128091B00290916A
S11307A0B10290936902809368028A38954019F0E7
S11307B081E090E0089508956AE080EF92E00C945F
S11307C07D0D0F931F938091160190911701892B32
S11307D081F58091120190911301892B51F50E94AA
S11307E0D00B0091FD021091FE022091FF02309186
S11307F00003DC01CB01801B910BA20BB30B803DEA
S11308009740A105B10530F081E090E09093FC029F
S11308108093FB028091F7029091F802892B99F45E
S11308200E94D80981E090E09093F8028093F70247
S11308300AC00E94D00B6093FD027093FE02809365
S1130840FF02909300031F910F9108958091FB0282
S11308509091FC020197B1F480910E0190910F01E7
S1130860892B81F480910C0190910D01019751F431
S113087082E090E09093FC028093FB0210920D01C1
S113088010920C0108950F931F93CF93DF93EC0103
S11308908B010E94AD030E94C703019741F4B80184
S11308A0CE01DF91CF911F910F910C94F407DF914A
S11308B0CF911F910F9108958091F9029091FA02BE
S11308C0009719F0019761F1089549E251E061E060
S11308D070E080E190E00E94D9068091140190912B
S11308E01501892B61F480911601909117010197EC
S11308F031F460E070E081E090E00E944304809174
S1130900100190911101892BB9F5809112019091F8
S11309101301019789F561E070E081E090E02AC05D
S113092049E251E062E070E080E190E00E94D90683
S11309308091140190911501892B61F48091160125
S113094090911701019731F460E070E082E090E04B
S11309500E9443048091100190911101892B61F44C
S11309608091120190911301019731F461E070E0DC
S113097082E090E00C94430408950F931F93CF9367
S1130980DF938091F1029091F202009721F0019798
S113099009F465C0C4C00E94D00B0091F302109109
S11309A0F4022091F5023091F602DC01CB01801BA8
S11309B0910BA20BB30B009104011091050120913E
S11309C0060130910701081719072A073B0708F0A9
S11309D0D5C00E94D00B0091F3021091F402209133
S11309E0F5023091F602AB01BC01401B510B620BC6
S11309F0730B8091040190910501A0910601B091BF
S1130A000701880F991FAA1FBB1F481759076A07B8
S1130A107B0708F0B3C049E251E061E070E080E197
S1130A2090E00E94D9068091160190911701892BBC
S1130A3009F075C0C0911401D0911501C130D105E0
S1130A4009F06DC04BE251E061E070E080E190E0BC
S1130A500E94D906D093F202C093F10260C00E94B2
S1130A60D00B0091F3021091F4022091F502309121
S1130A70F602DC01CB01801B910BA20BB30B00919E
S1130A800401109105012091060130910701081716
S1130A9019072A073B0708F0A0C00E94D00B009159
S1130AA0F3021091F4022091F5023091F602AB01A9
S1130AB0BC01401B510B620B730B8091040190919C
S1130AC00501A0910601B0910701880F991FAA1F83
S1130AD0BB1F481759076A077B0708F07EC049E225
S1130AE051E062E070E080E190E00E94D9068091DC
S1130AF0160190911701892B91F480911401909122
S1130B001501019761F44BE251E062E070E080E18D
S1130B1090E00E94D9061092F2021092F1028091A4
S1130B200E0190910F01892B09F086C080910C0170
S1130B3090910D01019709F07FC08091F10290918D
S1130B40F2028230910509F477C0009741F08130B8
S1130B50910549F49093FA028093F90204C010922B
S1130B60FA021092F90210920D0110920C0183E026
S1130B7090E09093FC028093FB025EC00E94D00B35
S1130B800091F3021091F4022091F5023091F602E3
S1130B90AB01BC01401B510B620B730B8091040130
S1130BA090910501A0910601B0910701880F991F4A
S1130BB0AA1FBB1F84179507A607B70758F40E94FE
S1130BC0D00B6093F3027093F4028093F502909338
S1130BD0F60229CF4BE251E020CF0E94D00B0091C6
S1130BE0F3021091F4022091F5023091F602AB0168
S1130BF0BC01401B510B620B730B8091040190915B
S1130C000501A0910601B0910701880F991FAA1F41
S1130C10BB1F84179507A607B70758F40E94D00B8B
S1130C206093F3027093F4028093F5029093F602BA
S1130C305ECF4BE251E055CFDF91CF911F910F91E1
S1130C4008958091FB029091FC020497B1F4809185
S1130C500A0190910B01892B81F4809108019091F4
S1130C600901019751F41092FC021092FB020E94B8
S1130C703A081092F8021092F7020895CF930E9456
S1130C809501C0E08C2F0E9474016C2F0E94C00655
S1130C90CF5FC432B9F7CF910C94270A8091FB023D
S1130CA09091FC02892B81F40E943E0680911201EE
S1130CB090911301892B41F48091100190911101BD
S1130CC0019711F40C94480A08958EE00E94170DC0
S1130CD090931301809312018FE00E94170D90935B
S1130CE017018093160180E10E94170D90930F0164
S1130CF080930E0181E10E94170D90930B01809364
S1130D000A016AE070E080E090E00E94010C0E9419
S1130D10E1030E9426048091FB029091FC02029759
S1130D2011F40E94BD048091FB029091FC02039790
S1130D3011F40E945C040E9421060E944E068091D8
S1130D4012019091130190931101809310018091ED
S1130D5016019091170190931501809314018091CD
S1130D600E0190910F0190930D0180930C018091DD
S1130D700A0190910B019093090180930801089551
S1130D80E62FF0E0EE0FFF1FE15FFC4F91838083BD
S1130D900895CF93DF93EA01462F682F81E093E013
S1130DA00E94D212BE0181E093E0DF91CF910C94B6
S1130DB0E50ACF93DF93EA01462F682F81E093E0A1
S1130DC00E94D212BE0181E093E0DF91CF910C9496
S1130DD00E13CF93DF93EA01462F682F81E093E04F
S1130DE00E94D2124AE050E0BE0181E093E0DF911C
S1130DF0CF910C947F0B9C01CB01BA01A90124363D
S1130E00310514F0029704C02A3031050CF0019723
S1130E100C94E906CF93DF93CFE0D3E040E050E0B9
S1130E2065E070E08A819B810E94FB0640E050E00F
S1130E306FE070E08E819F810E94FB0641E050E0EC
S1130E4065E070E0888599850E94FB0641E050E0EA
S1130E506FE070E08C859D850E94FB0642E050E0C7
S1130E606FE070E08A899B890E94FB0642E050E0B3
S1130E7067E070E08C899D890E94FB0643E050E0A6
S1130E8067E070E088819981DF91CF910C94FB0633
S1130E90CF93DF93CFE0D3E041E050E068E070E02F
S1130EA0888599850E94FB0642E050E068E070E086
S1130EB08A859B850E94FB0643E050E068E070E071
S1130EC08E899F89DF91CF910C94FB06CF93DF939A
S1130ED0CFE0D3E041E050E068E070E0888D998D88
S1130EE00E94FB0642E050E068E070E08A8D9B8D32
S1130EF00E94FB0643E050E068E070E08E8D9F8D19
S1130F00DF91CF910C94FB06CF93DF93CFE0D3E036
S1130F1041E050E068E070E08A819B810E94FB061A
S1130F2042E050E068E070E08A819B810E94FB0609
S1130F3043E050E068E070E08C819D81DF91CF91C7
S1130F400C94FB06CF93DF93CFE0D3E041E050E075
S1130F5068E070E0888999890E94FB0642E050E0CD
S1130F6068E070E08E859F850E94FB0643E050E0B8
S1130F7068E070E088A199A1DF91CF910C94FB0601
S1130F80CF93DF93CFE0D3E04EA15FA160E070E0A8
S1130F9088E090E00E94E9064EA15FA160E070E065
S1130FA088E090E00E94E90648A959A962E070E04F
S1130FB088E090E0DF91CF910C94E906CF93DF9322
S1130FC0CFE0D3E041E050E061E170E08CA99DA95D
S1130FD00E94FB0642E050E061E170E08EA99FA907
S1130FE0DF91CF910C94FB068130910591F48091AF
S1130FF04303909144036115710529F06130710533
S113100029F5019601C0019790934403809343030B
S11310101DC00297D9F46115710549F0613071055D
S1131020A9F48091450390914603019605C08091EF
S1131030450390914603019790934603809345039B
S113104042E050E061E170E00E94FB0641E050E0C4
S113105061E170E080914303909144030E94FB0698
S113106042E050E061E170E08091450390914603D5
S11310700C94FB0681E090E090930E0380930D03A3
S113108081E093E00E94A71249E851E060E070E03B
S113109080E090E00E94C9064FE451E060E070E017
S11310A087E090E00E94D9064DE251E060E070E0F4
S11310B081E190E00E94D90643E851E061E070E0EC
S11310C080E090E00E94C9064FE451E061E070E0E6
S11310D087E090E00E94D9064DE251E061E070E0C3
S11310E081E190E00E94D90644E351E062E070E0BF
S11310F080E090E00E94D9064BE351E062E070E0AA
S113110089E090E00E94D9064DE251E062E070E08F
S113111081E190E00E94D90643E451E063E070E08D
S113112080E090E00E94D9064AE451E063E070E078
S113113089E090E00E94D9060C940A0781E093E0CC
S11311400E94A71242E551E060E070E088E090E080
S11311500E94D90648E551E061E070E080E090E04B
S11311600E94D9064FE451E061E070E08AE090E02B
S11311700E94D90642E651E062E070E080E090E02F
S11311800E94D9064AE651E062E070E08AE090E00D
S11311900E94D9064DE651E063E070E080E090E003
S11311A00E94D90647E751E063E070E08AE090E0EE
S11311B00C94D90681E093E00E94A71240E851E024
S11311C060E070E088E090E00E94D90648E551E0D4
S11311D061E070E080E090E00E94D9064FE451E0C5
S11311E061E070E08AE090E00E94D90642E651E0B6
S11311F062E070E080E090E00E94D9064AE651E0A7
S113120062E070E08AE090E00E94D9064DE651E089
S113121063E070E080E090E00E94D90647E751E087
S113122063E070E08AE090E00C94D90681E093E0FA
S11312300E94A71246E851E060E070E088E090E088
S11312400E94D90648E551E061E070E080E090E05A
S11312500E94D9064FE451E061E070E08AE090E03A
S11312600E94D90642E651E062E070E080E090E03E
S11312700E94D9064AE651E062E070E08AE090E01C
S11312800E94D9064DE651E063E070E080E090E012
S11312900E94D90647E751E063E070E08AE090E0FD
S11312A00C94D90681E093E00E94A7124CE851E027
S11312B060E070E088E090E00E94D90648E551E0E3
S11312C061E070E080E090E00E94D9064FE451E0D4
S11312D061E070E08AE090E00E94D90642E651E0C5
S11312E062E070E080E090E00E94D9064AE651E0B6
S11312F062E070E08AE090E00E94D9064DE651E099
S113130063E070E080E090E00E94D90647E751E096
S113131063E070E08AE090E00C94D90681E093E009
S11313200E94A7124FE951E060E070E080E090E095
S11313300E94D90644EA51E061E070E080E090E068
S11313400E94D9064AEA51E062E070E080E090E051
S11313500E94D90643E451E063E070E080E090E04D
S11313600E94D9060C94C00781E093E00E94A71262
S113137040EB51E060E070E087E090E00E94D90625
S113138048EB51E061E070E087E090E00E94D9060C
S113139047EC51E062E070E084E090E00E94D906FE
S11313A042EE51E063E070E080E090E00C94D906F6
S11313B081E093E00E94A71249EE51E060E070E002
S11313C082E090E00E94D9064DE052E061E070E0D6
S11313D080E090E00E94D9064BE152E062E070E0C8
S11313E080E090E00E94D9064AE651E061E070E0B6
S11313F083E190E00E94D9060E94DE0787E090E036
S113140090930E0380930D03089581E093E00E946E
S1131410621481E093E00E94611264EF71E080E065
S113142090E00E94010C81E093E00E94A7120E94C8
S1131430B40981E090E090930E0380930D0368EB70
S11314407BE080E090E00E94010C0C943A088091CB
S11314500D0390910E038330910591F034F48130A3
S1131460910551F0029751F008958530910561F08E
S11314704CF0069759F008950C940A070C94480709
S11314800C9466070C9484070C94A2070C94C00770
S113149080910D0390910E0383309105C1F034F4D3
S11314A08130910551F0029769F0089585309105D6
S11314B0C1F094F00697D1F008950E949E0882E04E
S11314C090E018C00E94DA0883E090E013C00E9404
S11314D0160984E090E00EC00E94520985E090E075
S11314E009C00E948E0986E090E004C00E943A0878
S11314F081E090E090930E0380930D03089524E01F
S113150044E16FE381E093E00C943E120E945C019D
S11315100E947D010C94050A0E940C030E949E0304
S11315200C94650608950E94480C0E94920A0E9439
S1131530860AC0E0D0E00E948C0A2097E1F30E9462
S11315400000F9CF80E090E008950895CF92DF92F3
S1131550EF92FF920F931F93CF93DF936C017A0165
S11315608B01C0E0D0E0CE15DF0581F0D8016D918C
S11315708D01D601ED91FC910190F081E02DC60121
S11315800995892B11F02196EECF7E01C701DF91D9
S1131590CF911F910F91FF90EF90DF90CF9008951E
S11315A06115710579F0FB0101900020E9F731978D
S11315B0AF01461B570BDC01ED91FC910280F381D6
S11315C0E02D099480E090E008950C94D00ADC01A9
S11315D0ED91FC910190F081E02D09948F929F92FE
S11315E0AF92BF92EF92FF920F931F93CF93DF932B
S11315F0CDB7DEB7A1970FB6F894DEBF0FBECDBF4F
S11316007C01FA01CB0119A2223008F42AE08E01F0
S11316100F5D1F4F822E912CA12CB12CBF01A5016F
S113162094010E949617F901CA01015011096A3008
S113163010F4605D01C0695CD8016C93232B242BEA
S1131640252B61F7B801C7010E94D00AA1960FB6F5
S1131650F894DEBF0FBECDBFDF91CF911F910F91E4
S1131660FF90EF90BF90AF909F908F900895CF928E
S1131670DF92EF92FF920F931F93CF93DF93211585
S1131680310581F4DC01ED91FC910190F081E02DB4
S1131690642FDF91CF911F910F91FF90EF90DF9016
S11316A0CF9009942A30310501F577FF1DC06A01F6
S11316B07B01EC016DE20E94E70A8C014427552767
S11316C0BA014C195D096E097F092AE0CE010E9416
S11316D0EE0A800F911FDF91CF911F910F91FF9020
S11316E0EF90DF90CF9008952AE0DF91CF911F9182
S11316F00F91FF90EF90DF90CF900C94EE0A9A0137
S1131700AB01770F660B770B0C94370B1F920F927C
S11317100FB60F9211242F933F938F939F93AF9300
S1131720BF938091480390914903A0914A03B091DB
S11317304B033091470323E0230F2D3720F4019608
S1131740A11DB11D05C026E8230F0296A11DB11DE0
S1131750209347038093480390934903A0934A033B
S1131760B0934B0380914C0390914D03A0914E0391
S1131770B0914F030196A11DB11D80934C0390932A
S11317804D03A0934E03B0934F03BF91AF919F912C
S11317908F913F912F910F900FBE0F901F9018952E
S11317A02FB7F894609148037091490380914A03DC
S11317B090914B032FBF08953FB7F89480914C0349
S11317C090914D03A0914E03B0914F0326B5A89B71
S11317D005C02F3F19F00196A11DB11D3FBFBA2FBF
S11317E0A92F982F8827820F911DA11DB11DBC011F
S11317F0CD0142E0660F771F881F991F4A95D1F7E4
S113180008958F929F92AF92BF92CF92DF92EF9200
S1131810FF926B017C010E94DC0B4B015C01C11443
S1131820D104E104F10401F10E949E150E94DC0B35
S1131830DC01CB0188199909AA09BB09883E9340A8
S1131840A105B10560F321E0C21AD108E108F1084D
S113185088EE880E83E0981EA11CB11CC114D1042B
S1131860E104F10419F7DBCFFF90EF90DF90CF9004
S1131870BF90AF909F908F9008958230910538F07B
S1131880880F991F880F991F05970197F1F70895FD
S1131890789484B5826084BD84B5816084BD85B547
S11318A0826085BD85B5816085BDEEE6F0E080810E
S11318B081608083E1E8F0E010828081826080832F
S11318C0808181608083E0E8F0E0808181608083B2
S11318D0E1EBF0E0808184608083E0EBF0E08081E4
S11318E081608083EAE7F0E0808184608083808186
S11318F0826080838081816080838081806880832E
S11319001092C1000895833081F028F4813099F059
S11319108230A1F008958730A9F08830B9F084307E
S1131920D1F4809180008F7D03C0809180008F77F7
S113193080938000089584B58F7702C084B58F7D2D
S113194084BD08958091B0008F7703C08091B0006A
S11319508F7D8093B0000895CF93DF9390E0FC01D6
S1131960E85EFD4F2491FC01E45DFD4F84918823E2
S113197061F190E0880F991FFC01EC5AFD4FC5916D
S1131980D491FC01E65BFD4FA591B491611109C0AE
S11319909FB7F8948881209582238883EC912E2325
S11319A00BC0623061F49FB7F8948881322F309570
S11319B083238883EC912E2B2C939FBF06C08FB773
S11319C0F894E8812E2B28838FBFDF91CF9108955F
S11319D01F93CF93DF93282F30E0F901EC5FFD4F85
S11319E08491F901E85EFD4FD491F901E45DFD4F66
S11319F0C491CC23C1F0162F81110E94830CEC2FCB
S1131A00F0E0EE0FFF1FE65BFD4FA591B4919FB789
S1131A10F894111104C08C91D095D82302C0EC9194
S1131A20DE2BDC939FBFDF91CF911F910895CF935D
S1131A30DF93282F30E0F901EC5FFD4F8491F90129
S1131A40E85EFD4FD491F901E45DFD4FC491CC23D0
S1131A5091F081110E94830CEC2FF0E0EE0FFF1F38
S1131A60E05CFD4FA591B491EC91ED2381E090E011
S1131A7021F480E002C080E090E0DF91CF910895EE
S1131A808EBD00000DB407FEFDCF8EB50895FC0198
S1131A9080915203882399F03FB7F89480915203C0
S1131AA0813059F48DB3809350032DB39091510339
S1131AB0909592239DBB3FBF02C03093500380E5B5
S1131AC08CBD81E08DBD60E080810C94E80C61E008
S1131AD0FC0180810E94E80C80915203882361F00C
S1131AE09FB7F8942091520380915003213019F448
S1131AF08DBB9FBF08958FBF08951F93CF93DF932E
S1131B00EC01162F0E946414188361E0812F0E9457
S1131B10AC0CCE01DF91CF911F910C94670D1F93F4
S1131B20CF93DF93EC01162F0E94470D83E00E94B0
S1131B30400D812F0E94400D80E00E94400D182F1F
S1131B40CE010E94670D812FDF91CF911F910895DF
S1131B50DF92EF92FF920F931F93CF93DF938C0149
S1131B60C62FD42EE52EF22E0E94470D83E00E944C
S1131B70400D8C2F0E94400DCD2DDE2DCE018F0DFA
S1131B80911D7C01CE15DF0529F080E00E94400DF7
S1131B908993F8CFC801DF91CF911F910F91FF90E6
S1131BA0EF90DF900C94670D0F931F93CF93DF9307
S1131BB0EC01062F142F0E94470D82E00E94400D75
S1131BC0802F0E94400D812F0E94400DCE01DF9195
S1131BD0CF911F910F910C94670DDF92EF92FF92BA
S1131BE00F931F93CF93DF938C01C62FD42EE52E32
S1131BF0F22E0E94470D82E00E94400D8C2F0E941D
S1131C00400DCD2DDE2DCE018F0D911D7C01CE1505
S1131C10DF0521F089910E94400DF9CFC801DF91C1
S1131C20CF911F910F91FF90EF90DF900C94670D6F
S1131C30FF920F931F93CF93DF93EC01F62E042FA3
S1131C40122F0E94470D85E00E94400D8F2D0E94A7
S1131C50400D802F0E94400D812F0E94400DCE0127
S1131C60DF91CF911F910F91FF900C94670D1F93FB
S1131C70CF93DF93EC010E94470D80EA0E94400D50
S1131C8080E00E94400D182FCE010E94670D812F25
S1131C90DF91CF911F910895CF92DF92EF92FF923F
S1131CA01F93CF93DF93EC01162F262F40EE6FE0A6
S1131CB00E94180E0E94D00B6B017C012AE0C20E18
S1131CC0D11CE11CF11C0E94D00B6C157D058E0506
S1131CD09F0548F46EE0CE010E948F0D807E18139C
S1131CE0F2CF81E001C080E091E08927DF91CF91BC
S1131CF01F91FF90EF90DF90CF90089560E80C94CF
S1131D004C0E60E00C944C0E0F931F93CF93DF9313
S1131D108C01C62FD42F0E947E0E8111B7C0D13002
S1131D20A9F108F464C0D23009F090C08C2F90E07F
S1131D308031910508F08AC0FC01EC5CFF4F0C94E3
S1131D40B817C7E8DFEB32C0C4E8D4EA87C0C5E8F7
S1131D50D2EE47E48CC0C7E8DFEB67C0C6E8D4EB3B
S1131D6064C0C7E8DFEB65C0C6E8D4EB62C0C5E871
S1131D70D1EB5FC0C6E8D4EB64C0C5E8D1EB61C069
S1131D80C2E8D0E95EC0C0E8D0E85BC08C2F90E028
S1131D908031910508F05AC0FC01EC5BFF4F0C94B4
S1131DA0B817C7E8DFEF56C0C7E8DFEF4FE05FC002
S1131DB0C5E8D1EF4EE45BC0C7E8DFEF4FC0C7E82A
S1131DC0DAEF4CC0C7E8DFEF30C0C7E0DEEB2DC070
S1131DD0C6E8D0EF2AC0C7E8DAEF2BC0C5E8D1EFD8
S1131DE02CC0C6E8D0EF2DC0C2E8D0ED2AC08C2F9D
S1131DF090E0FC013497EC30F10540F5EC5AFF4FCC
S1131E000C94B817C7E8DFEF02C0C7E8DAEF49E07F
S1131E102EC0C7E8DFEF02C0C7E8DEEF44E027C00A
S1131E20C7E8DAEFFBCFC7E8DAEF43E020C0C7E842
S1131E30DFEF41E01CC0C6E8DBEF41E418C0C7E8AF
S1131E40DAEF40E014C0C2E8D9EDFBCF81E01EC058
S1131E50C7E8DFEB4FE10BC0C7E8DFEB47E007C0A3
S1131E60C7E8DFEF4FE303C0C7E8DFEF4BE06AE208
S1131E70C8010E94D40D4D2F69E2C8010E94D40DFF
S1131E804C2F68E2C8010E94D40D80E0DF91CF910D
S1131E901F910F9108950F931F93FB014423B1F0F9
S1131EA003831283890122273327902F9C71802F6B
S1131EB0837048E0949F800D11248860818355E0ED
S1131EC0169507955A95E1F700830DC0C80123E0E4
S1131ED0969587952A95E1F780830295000F007EF9
S1131EE00183138212821F910F9108958F929F9202
S1131EF0AF92BF92CF92DF92EF92FF920F931F9314
S1131F00CF93DF9300D000D0CDB7DEB77C01D62EBF
S1131F10C42E480159010E947E0E81111BC09501F7
S1131F2084014C2DBE016F5F7F4FC7010E944B0F90
S1131F30DD2029F081E0D8120CC064E201C060E227
S1131F4024E0AE014F5F5F4FC7010E94ED0D80E0BA
S1131F5001C081E00F900F900F900F90DF91CF910F
S1131F601F910F91FF90EF90DF90CF90BF90AF90B3
S1131F709F908F9008958F929F92AF92BF92CF922D
S1131F80DF92EF92FF920F931F93CF93DF9300D0D2
S1131F9000D0CDB7DEB76C01F62EE42E480159010E
S1131FA00E947E0E811136C082E0F816A9F08F15CA
S1131FB040F0FF20D1F081E0F8122BC044E0F42E71
S1131FC015C084E0F81671F0F81648F085E0F812B0
S1131FD020C088E1F82E0AC038E0F32E07C020E1C3
S1131FE0F22E04C094E1F92E01C0F12C9501840174
S1131FF04E2DBE016F5F7F4FC6010E944B0F24E040
S1132000AE014F5F5F4F6F2DC6010E94ED0D80E062
S113201001C081E00F900F900F900F90DF91CF914E
S11320201F910F91FF90EF90DF90CF90BF90AF90F2
S11320309F908F900895AF92BF92CF92DF92EF92CC
S1132040FF920F931F93CF93DF93CDB7DEB76497BF
S11320500FB6F894DEBF0FBECDBF7C010E94470DC2
S113206080EC0E94400DC7010E94670D6AE070E099
S113207080E090E00E94010C8E010F5F1F4F8EE004
S1132080F80111928A95E9F72EE0A80160E3C701EF
S11320900E94ED0D2EE0A80160E4C7010E94ED0D41
S11320A02EE0A80160E5C7010E94ED0D40E060E666
S11320B0C7010E94D40D40E060E7C7010E94D40D1F
S11320C043EA6BE2C7010E94D40D24E047E660E6D0
S11320D0C7010E94180E21E047E660E7C7010E948D
S11320E0180E86E0E8E1F1E0DE011F9601900D9202
S11320F08A95E1F75E01FFE0AF0EB11CC12CD12C33
S1132100F50161915F0141E0F1E0CF16D10409F0DE
S113211040E000E010E09801C7010E94BB0F81116C
S113212019C08FEFC81AD80AE6E0CE16D10441F7D9
S113213000E010E0980141E060E0C7010E94760FE2
S1132140811108C000E010E0980141E061E0C7019E
S11321500E94760F64960FB6F894DEBF0FBECDBF13
S1132160DF91CF911F910F91FF90EF90DF90CF906F
S1132170BF90AF9008954F925F926F927F92AF920B
S1132180BF92CF92DF92EF92FF920F931F93CF9360
S1132190DF93CDB7DEB72D970FB6F894DEBF0FBE31
S11321A0CDBFFA012481293008F03FC06A015C01E7
S11321B0E62EF12C4080518062807380930182016D
S11321C03F7141E0BE016F5F7F4F0E944B0FF601EC
S11321D01481812F76FC80648D83412F50E0B601F9
S11321E0685F7F4FCE0106960E94031925E0210FF8
S11321F08701000F111F0E0D1F1D0F5B1D4FAE0138
S11322004F5F5F4FF8016181C5010E94ED0DF80138
S1132210108128E048E0612FC5010E94180E612F4B
S1132220C5010E948F0D807709F084E02D960FB6CA
S1132230F894DEBF0FBECDBFDF91CF911F910F91F8
S1132240FF90EF90DF90CF90BF90AF907F906F9012
S11322505F904F9008959F92AF92BF92CF92DF927A
S1132260EF92FF920F931F93CF93DF9300D01F92AF
S1132270CDB7DEB7FB0124812930E8F57B018C0161
S113228080911E0190911F01A091200189839A835E
S1132290AB83CE0101966C015E0194E0A90EB11CE2
S11322A0F60191906F01292D30E0F901EE0FFF1F27
S11322B02E0F3F1FF901EF5BFD4F6081C8010E94A3
S11322C08F0D83FD13C0A701692DC8010F900F90D6
S11322D00F90DF91CF911F910F91FF90EF90DF90BE
S11322E0CF90BF90AF909F900C94BB10CA14DB04A6
S11322F0B9F682E001C084E00F900F900F90DF9157
S1132300CF911F910F91FF90EF90DF90CF90BF90EE
S1132310AF909F9008957F928F929F92AF92BF92B9
S1132320CF92DF92EF92FF920F931F93CF93DF939D
S113233000D000D01F92CDB7DEB74C015A0124E083
S1132340629F80011124F801E75CFD4F25E0AE0196
S11323504F5F5F4F61810E94A80D8A819981C82EC9
S1132360D12C45E0D594C7944A95E1F7E8E09E9FC7
S1132370C00CD11C11240D2C000CEE08FF0883FFA7
S113238020C092E0CC0CDD1CEE1CFF1C9A95D1F70A
S11323908370C80ED11CE11CF11CFE2CED2CDC2C2E
S11323A0CC248B81C80ED11CE11CF11CFE2CED2C1D
S11323B0DC2CCC248C81C80ED11CE11CF11C68944B
S11323C0F7F88D818F70782EF8E0F81728F1F8016E
S11323D0E75CFD4F6081C4010E948F0D83FF02C042
S11323E06894F6F8F501C082D182E282F3827482A5
S11323F0A501485F5F4F075C1D4F272DF8016281DF
S1132400C4010E94A80D20E0F80143816CE2C401DC
S11324100E94180E80E001C081E00F900F900F9091
S11324200F900F90DF91CF911F910F91FF90EF903C
S1132430DF90CF90BF90AF909F908F907F90089542
S11324400F931F93CF93DF93EC018B010E94370E00
S113245080FF03C0A80160E004C081FF09C0A80197
S113246061E0CE01DF91CF911F910F910C948B11FC
S113247085E0DF91CF911F910F910895FC011382A4
S113248012828EE492E09183808364834187228761
S1132490138608951F93CF93DF93EC01162F6C815D
S11324A084E593E00E947A156B85612B84E593E0C3
S11324B00E94291584E593E0DF91CF911F910C943C
S11324C0971528E0FC01238760E00C944A120F93CF
S11324D01F93CF938C01C62F64600E944A1281E03F
S11324E090E00E943D0C6C2F6B7FC8010E944A1241
S11324F082E390E0CF911F910F910C943D0C1F93B8
S1132500CF93DF93EC01162F0E944A12612FCE0164
S1132510DF91CF911F910C9467120F931F93CF9368
S1132520DF938C01C62FD42F607F642B0E947F120F
S113253080E1C89FB00111246D2BC801DF91CF91B8
S11325401F910F910C947F1240E00C948D12CF9345
S1132550DF93EC0168E00E94A41288EE93E00E94ED
S11325603D0C67E1CE010E94A41288EE93E00E9424
S11325703D0C61E0CE010E94A41288EE93E00E941B
S11325803D0C6CE0CE010E94A41288EE93E0DF9132
S1132590CF910C943D0C62E00E94A41280ED97E070
S11325A00C943D0CCF93DF93CDB7DEB728970FB6CD
S11325B0F894DEBF0FBECDBF9C0188E0E1E2F1E0FC
S11325C0DE01119601900D928A95E1F7F90180855B
S11325D0841710F44FEF480FFE013196E40FF11DFC
S11325E0E40FF11D9081690F6068C90128960FB648
S11325F0F894DEBF0FBECDBFDF91CF910C94A4122F
S1132600FC016681262F246026836C600C94A4123E
S113261041E00E948D1281E090E008950F931F9392
S1132620CF93DF93EC018B01F80161918F01662355
S113263009F4D1C0862F90E0FC01F097E23AF1054D
S113264008F0C4C0E05AFF4F0C94B81741E060E7AB
S1132650BEC041E063E6BBC041E06FEBB8C041E0FF
S113266069E7B5C041E064EEB2C041E068E7AFC0DD
S113267041E065EEACC041E060ECA9C041E061EC32
S1132680A6C041E066EEA3C041E062ECA0C041E018
S113269063EC9DC041E064EC9AC041E065EC97C0F6
S11326A041E066EC94C041E067EC91C041E061E434
S11326B08EC041E060EA8BC041E062E488C041E042
S11326C061EA85C041E060EE82C041E065E47FC01C
S11326D041E063EA7CC041E064EA79C041E065EA34
S11326E076C041E066EA73C041E06BE470C041E04B
S11326F067EA6DC041E06DE46AC041E068E467C028
S113270041E06FE464C041E068EA61C041E060E533
S11327105EC041E063E45BC041E064E558C041E071
S113272069EA55C041E06AEA52C041E068E54FC039
S113273041E061EE4CC041E06BEA49C041E06CEA23
S113274046C041E062EE43C041E06DEA40C041E072
S11327506EEA3DC041E062E63AC041E06FEA37C04C
S113276041E060EB34C041E061EB31C041E061E63F
S11327702EC041E062EB2BC041E063EB28C041E096
S113278064EB25C041E063EE22C041E065E61FC072
S113279041E066EB1CC041E067EB19C041E068EB27
S11327A016C041E069EB13C041E06AEB10C041E0A0
S11327B06BEB0DC041E06CEB0AC041E06DEB07C070
S11327C041E06FE604C041E06EEB01C041E0CE01A0
S11327D00E948D1229CFDF91CF911F910F910895FF
S11327E0CF93DF93EC01423018F08D8188608D83A4
S11327F04887222329F0413019F48D8184608D8328
S113280062E370E080E090E00E94010C6B85CE01F1
S11328100E944A1268EE73E080E090E00E94010C8E
S113282060E0CE010E947F1284E690E00E943D0C9D
S113283060E0CE010E947F1284E690E00E943D0C8D
S113284060E0CE010E947F1284E690E00E943D0C7D
S113285060E0CE010E947F1284E690E00E943D0C6D
S113286060E0CE010E947F1286E990E00E943D0C58
S113287060E2CE010E947F126D816062CE010E94EF
S1132880A41284E08E83CE010E94001382E08F8321
S113289066E0CE010E94A412CE01DF91CF910C9488
S11328A0CB12CF93DF93EC0184E593E00E9468158B
S11328B082E08D8320E04A856985CE01DF91CF9146
S11328C00C94F0130C945114CF93CFB7F8948091D7
S11328D05303811127C0E6E3F2E08491E2E2F2E0DF
S11328E09491E82FF0E0EE0FFF1FEC5AFD4FA591F5
S11328F0B491EC91E92321F461E08AE00E94E80CB0
S113290061E08AE00E94AC0C8CB580618CBD8CB512
S113291080648CBD61E08DE00E94AC0C61E08BE0D2
S11329200E94AC0C809153038F5F80935303CFBFFD
S1132930CF9108958091880390E020918903821BB0
S1132940910908959091890380918803981750F410
S1132950E92FF0E0E657FC4F208130E09F5F909331
S1132960890302C02FEF3FEFC9010895E091890365
S113297080918803E81730F4F0E0E657FC4F80813B
S113298090E008958FEF9FEF08950895CF93DF931C
S1132990EC01E0916003F09161033097F1F09091C4
S11329A08903809188039817C0F090E0292F30E0C4
S11329B02617370754F4DE01A20FB31F4C91D90137
S11329C0A657BC4F4C939F5FF1CF1092890360933D
S11329D08803CB01DF91CF910994DF91CF910895C2
S11329E0E0916203F0916303309729F0109266033B
S11329F01092650309940895CF92DF92EF92FF92AB
S1132A000F931F93CF93DF937C01CB018A01209115
S1132A106403222389F0EB016B01C40ED51ECC158F
S1132A20DD0569F06991D701ED91FC910190F08188
S1132A30E02DC7010995F3CF642F0E941316C80136
S1132A40DF91CF911F910F91FF90EF90DF90CF9086
S1132A500895CF93DF931F92CDB7DEB7698320919A
S1132A6064032223D1F020916503203240F021E059
S1132A7030E0FC013383228380E090E015C0809134
S1132A806603E82FF0E0E959FC4F998190838F5F4A
S1132A90809366038093650305C061E0CE010196CF
S1132AA00E94131681E090E00F90DF91CF9108957A
S1132AB0FC011382128288EE93E0A0E0B0E08483EC
S1132AC09583A683B7838AE592E0918380830895F2
S1132AD01092890310928803109266031092650382
S1132AE00E949F1580EF94E10E94401686EC94E1C9
S1132AF00C943B1681E080936403609387031092E7
S1132B0066031092650308950F93062F21E0409108
S1132B10650367E673E0809187030E94BD151092F8
S1132B20660310926503109264030F91089561E0A7
S1132B300C94841584E593E00C9458150895109230
S1132B40170481E0809315041092140461E082E17B
S1132B500E94E80C61E083E10E94E80CE9EBF0E0FC
S1132B6080818E7F808380818D7F808388E48093C1
S1132B70B80085E48093BC0008950F93413208F0B7
S1132B804AC0909117049111FCCF32E0309317049E
S1132B90009315043FEF3093AA031092EF03409380
S1132BA0EE03562FA0EFB3E0FB013E2F351B341785
S1132BB018F431913D93F9CF109216043091160414
S1132BC0880F832B8093160480911404813061F460
S1132BD010921404809116048093BB008091BC0071
S1132BE083FDF8CF85EC01C085EE8093BC002223E1
S1132BF021F0809117048230D1F38091AA038F3F92
S1132C0079F08091AA03803241F08091AA03803345
S1132C1031F094E005C091E003C092E001C093E07C
S1132C20892F0F9108954091CC03262F30E0240F73
S1132C30311D21323105DCF4209117042430C9F40C
S1132C40FC0180E090E0861758F43091CC03219188
S1132C50DC01A253BC4FA30FB11D2C930196F3CFFB
S1132C608091CC03680F6093CC0380E0089581E0E9
S1132C70089582E0089590931104809310040895B8
S1132C809093130480931204089585ED8093BC00FF
S1132C908091BC0084FDFCCF10921704089585EC4C
S1132CA08093BC001092170408951F920F920FB6E0
S1132CB00F9211242F933F934F935F936F937F93BE
S1132CC08F939F93AF93BF93EF93FF938091B9003A
S1132CD0887F803609F49EC078F5883209F45DC097
S1132CE090F4803109F456C038F4882309F4F5C00F
S1132CF0883009F44FC0F5C0883109F44EC08032E1
S1132D0009F45FC0EEC0803409F46AC058F480331B
S1132D1009F457C0883309F0E4C08093AA030E94E1
S1132D204F16DFC0803509F44FC0883509F45DC003
S1132D30883409F0D6C0D3C0883909F4C4C0A8F4D3
S1132D40883709F467C038F4883609F463C08037DB
S1132D5009F460C0C6C0883809F4B5C0803909F4E4
S1132D605FC0803809F0BDC05BC0803B09F483C0FC
S1132D7038F4803A09F466C0883A09F47CC0B1C0DA
S1132D80803C09F4A4C0883C09F4A1C0883B09F440
S1132D9087C0A7C08091160410C09091EF03809162
S1132DA0EE03981770F5E091EF0381E08E0F8093A6
S1132DB0EF03F0E0E051FC4F80818093BB0085EC91
S1132DC083C08093AA038BC0E091EF0381E08E0F50
S1132DD08093EF038091BB00F0E0E051FC4F8083CF
S1132DE09091EF038091EE036BC0E091EF0381E0DB
S1132DF08E0F8093EF038091BB00F0E0E051FC4F15
S1132E0080838091150481116AC081E08093140449
S1132E1084EA5EC083E0809317041092AB03CFCFA3
S1132E208091AB03803208F04EC0E091AB0381E0A7
S1132E308E0F8093AB038091BB00F0E0E455FC4F10
S1132E408083BDCF0E944F168091AB03803230F453
S1132E50E091AB03F0E0E455FC4F10826091AB03CA
S1132E6070E0E0911004F09111048CEA93E009956C
S1132E701092AB0336C084E0809317041092CD0304
S1132E801092CC03E0911204F091130409958091FF
S1132E90CC03811105C081E08093CC031092CE0352
S1132EA0E091CD0381E08E0F8093CD03F0E0E253F7
S1132EB0FC4F80818093BB009091CD038091CC0323
S1132EC0981708F47CCF85E88093BC000AC085EC91
S1132ED08093BC001092170404C01092AA030E94AD
S1132EE04516FF91EF91BF91AF919F918F917F9183
S1132EF06F915F914F913F912F910F900FBE0F9063
S1132F001F90189597FB072E16F4009407D077FDB1
S1132F1009D00E94BE1707FC05D03EF49095819518
S1132F209F4F0895709561957F4F0895A1E21A2EE1
S1132F30AA1BBB1BFD010DC0AA1FBB1FEE1FFF1F59
S1132F40A217B307E407F50720F0A21BB30BE40BA9
S1132F50F50B661F771F881F991F1A9469F76095F0
S1132F607095809590959B01AC01BD01CF010895AA
S1132F70EE0FFF1F0590F491E02D0994AA1BBB1BD3
S1132F8051E107C0AA1FBB1FA617B70710F0A61B65
S1132F90B70B881F991F5A95A9F780959095BC0186
S1132FA0CD0108950E94D9176894B1110C9490181A
S1132FB008950E94751888F09F5798F0B92F9927A3
S1132FC0B751B0F0E1F0660F771F881F991F1AF010
S1132FD0BA95C9F714C0B13091F00E948F18B1E0CE
S1132FE008950C948F18672F782F8827B85F39F0CD
S1132FF0B93FCCF3869577956795B395D9F73EF4A9
S113300090958095709561957F4F8F4F9F4F089550
S1133010E89409C097FB3EF490958095709561956E
S11330207F4F8F4F9F4F9923A9F0F92F96E9BB2724
S11330309395F695879577956795B795F111F8CFA0
S1133040FAF4BB0F11F460FF1BC06F5F7F4F8F4F0B
S11330509F4F16C0882311F096E911C0772321F001
S11330609EE8872F762F05C0662371F096E8862F99
S113307070E060E02AF09A95660F771F881FDAF7F0
S1133080880F9695879597F9089597F99F6780E833
S113309070E060E008959FEF80EC089500240A94A6
S11330A01616170618060906089500240A9412161F
S11330B01306140605060895092E0394000C11F452
S11330C0882352F0BB0F40F4BF2B11F460FF04C0FF
S11330D06F5F7F4F8F4F9F4F089557FD9058440F58
S11330E0551F59F05F3F71F04795880F97FB991F63
S11330F061F09F3F79F08795089512161306140620
S1133100551FF2CF4695F1DF08C0161617061806AC
S1133110991FF1CF86957105610508940895E89487
S1133120BB2766277727CB0197F908950E94A91832
S11331300C945C180E944E1838F00E94551820F028
S1133140952311F00C9445180C944B1811240C94ED
S113315090180E946D1870F3959FC1F3950F50E07D
S1133160551F629FF001729FBB27F00DB11D639F35
S1133170AA27F00DB11DAA1F649F6627B00DA11DDB
S1133180661F829F2227B00DA11D621F739FB00D81
S1133190A11D621F839FA00D611D221F749F3327F1
S11331A0A00D611D231F849F600D211D822F762F8A
S11331B06A2F11249F5750409AF0F1F088234AF067
S11331C0EE0FFF1FBB1F661F771F881F91505040D3
S11331D0A9F79E3F510580F00C9445180C94901863
S11331E05F3FE4F3983ED4F3869577956795B7955A
S11331F0F795E7959F5FC1F7FE2B880F911D969574
S1133200879597F90895FB01DC0102C001900D92A6
S10F321041505040D8F70895F894FFCFC7
S113321C01000100E80300000100010001000100AD
S113322C010001000100010000010203040500017A
S113323C0200004000140054005F002000D0BAD0FB
S113324C92D18200D093D0B5D0BD00D0BED0B12FD6
S113325CD0BC00D0A3D09AD09800D0BED0BC2FD074
S113326C920044432F444300D09DD0B0D0BFD180B2
S113327C3A00D0A2D0BED0BA3A00D09000D0A2D09E
S113328CB5D0BCD0BF3A00D0B3D180D0B0D0B4004C
S113329C41432F44430044432F414300D093D0B5C2
S11332ACD0BDD0B5D180D0B0D182D0BED1800032C7
S11332BC37D09200323230D09200343030D0920079
S11332CC52554252554B5300D0A1D0B8D181D18222
S11332DCD0B5D0BCD0B000D0ADD0BDD0B5D180D09D
S11332ECB3D0BED0BFD0B8D182D0B0D0BDD0B8D1BD
S11332FC8F00765F302E303100D098D0B7D0BCD050
S113330CB5D0BDD0B5D0BDD0B8D0B520D0BDD0B01F
S113331CD181D182D180D0BED0B5D0BA00D0A2D0C8
S113332CBED0BA2044432F44433A00D09CD0B0D0F2
S113333CBAD1812ED0BCD0BED0BCD0B5D0BDD18238
S113334C20D0B3D0B5D0BD3A0060616601707176FF
S113335C02303136404146505156000000000813EB
S113336CA60AA20AA50A000000002915FC14A20A48
S10B337CC5149A14A214B6143E
S9030000FC
