:100000000C9432010C945A010C945A010C945A012C
:100010000C945A010C945A010C945A010C945A01F4
:100020000C945A010C945A010C945A010C945A01E4
:100030000C945A010C945A010C945A010C945A01D4
:100040000C94E50B0C945A010C945A010C945A012F
:100050000C945A010C945A010C945A010C945A01B4
:100060000C94B4160C945A01870F000F8B0F030FDA
:10007000060F0A0F0D0F100F850F850F130F160FA8
:10008000190F1C0F1F0F220F8F0F300F330F850F0B
:10009000370F3B0F3E0F410F440F850F720F470F75
:1000A0004A0F4D0F500F530F930F610F640F680FDE
:1000B0006B0F850F6F0F720F760F7A0F7E0F820F07
:1000C000DF134514451445144514451445144514CF
:1000D0004514451445144514451445144514451458
:1000E0004514451445144514451445144514451448
:1000F0004514451445144514451445144514451438
:100100004514451445144514451445144514451427
:100110004514451445144514451445144514451417
:100120004514451445144514451445144514451407
:1001300045144514451445144514451445144514F7
:1001400045144514451445144514451445144514E7
:1001500045144514451445144514451445144514D7
:10016000851388138B138E139113941397139A137B
:100170009D13A013A313A613A913AC13AF13B213AB
:10018000B513B813BB13BE13C113C413C713CA13DB
:10019000CD13D013D313D613D913DC13DF13E2130B
:1001A000E513E813EB13EE13F113F413F713FA133B
:1001B000FD1300140314061409140C140F14121464
:1001C000151418141B141E142114241427142A1493
:1001D0002D1430143314361439143C143F144214C3
:1001E0004514451445144514451445144514451447
:1001F0004514451445144514451445144514451437
:1002000073137313000000080002010000030407C9
:1002100000000000000000000102040810204080DF
:100220000102040810200102040810200404040440
:100230000404040402020202020203030303030390
:100240000000000023002600290000000000250017
:1002500028002B0000000000240027002A00C6030D
:10026000DE0AF91511241FBECFEFD8E0DEBFCDBFE7
:1002700012E0A0E0B1E0EAEDF2E302C005900D92D9
:10028000AE38B107D9F723E0AEE8B2E001C01D9265
:10029000A43FB207E1F711E0C2E3D1E004C0219727
:1002A000FE010E941718CF32D107C9F70E94F20A47
:1002B0000C946B190C94000062E080E10E940B0D1D
:1002C00062E081E10E940B0D62E08FE00E940B0D65
:1002D00062E08EE00E940B0D61E087E00E940B0D52
:1002E00061E086E00C940B0DE82FF0E0EE0FFF1FAD
:1002F000E057FD4F8081918108950E94C31461E011
:100300008AE00E940B0D61E08AE00E94470D88EFB1
:1003100092E00E947A1041E06DE088EF92E00E9446
:10032000E30E88EF92E00C94E00ECF92DF92EF9212
:10033000FF9268ED72E088EF92E00E947F12809158
:10034000D8029091D90290938F0280938E028732C7
:10035000910509F429C1E4F4803E20EE920709F4E6
:1003600007C1803A21EE920709F4B2C0803A904E5C
:1003700009F04CC18091E30290E0982F88272091EA
:10038000E202820F911D9093B5028093B4023EC1A8
:10039000813822E09207E9F094F48138914009F025
:1003A00035C18091E30290E0982F88272091E202E6
:1003B000820F911D9093BF028093BE0227C18138A6
:1003C00023E0920709F45DC08138944009F472C0BB
:1003D0001DC14091E30250E0542F44278091E20276
:1003E000480F511DF4E055954795FA95E1F7509364
:1003F0009302409392022091E10230E0322F2227B3
:100400008091E002280F311DB4E035952795BA950B
:10041000E1F73093950220939402429FC001439FDD
:10042000900D529F900D112468EE73E00E94E11729
:1004300070939902609398028091E40290E0982F63
:1004400088272091E502820F911D34E095958795CC
:100450003A95E1F79093AB028093AA028091E6026D
:1004600090E0982F88272091E702820F911D54E099
:10047000959587955A95E1F79093AD028093AC02DC
:10048000C5C08091E60290E09093AF028093AE02E7
:100490008091E30290E0982F88272091E202820F5A
:1004A000911D74E0959587957A95E1F79093970261
:1004B000809396028091E10290E0982F8827209106
:1004C000E002820F911D90939102809390029EC052
:1004D0006091E10270E0762F66278091E002680F5C
:1004E000711D072E000C880B990B0E9469182DECCA
:1004F0003CEC4CEC5DE30E94F5180E9431186B0156
:100500007C017093A3026093A2026091E30270E009
:10051000762F66278091E202680F711D072E000C6E
:10052000880B990B0E9469182DEC3CEC4CEC5DE3B8
:100530000E94F5180E9431187093A5026093A402DE
:100540006C9D90016D9D300D7C9D300D1124C90175
:1005500068EE73E00E94E1177093A7026093A60211
:100560008091E60290E09093A9028093A8024EC089
:100570008091E202282F30E030939B0220939A0270
:100580009091E302292F30E030939D0220939C024A
:10059000899FC001112468EE73E00E94E1177093F7
:1005A0009F0260939E0232C08091E702982F917063
:1005B0009093BA021092BB0281FB992790F9909315
:1005C000BC021092BD0282FB992790F99093B00271
:1005D0001092B10283FB992790F99093B202109286
:1005E000B30284FB992790F99093B6021092B70258
:1005F00085FB992790F99093B8021092B90286FB77
:10060000882780F98093C0021092C102FF90EF907A
:10061000DF90CF900895CF92DF92EF92FF920F93E9
:100620001F9388E290E0AFEFB8E18093E8029093E7
:10063000E902A093EA02B093EB0288E08093EC0217
:10064000E1EFF2E0119242E0E83FF407D9F780E1F0
:100650000E94760D909303018093020181E10E9434
:10066000760D909301018093000120910201309159
:100670000301232B51F42091D0023091D10221307B
:10068000310519F421E02093F002019741F48091A3
:10069000CE029091CF02892B11F41092F00281E1E9
:1006A0000E94760D9093CF028093CE0280E10E944B
:1006B000760D9093D1028093D0020E942F0C60930C
:1006C000CA027093CB028093CC029093CD0200912A
:1006D000C6021091C7022091C8023091C9026B0175
:1006E0007C01C01AD10AE20AF30A44EFC41641E0C1
:1006F000D406E104F104D0F06093C6027093C702FF
:100700008093C8029093C9026AE070E080E090E0B4
:100710000E94600C68EE72E088EF92E01F910F91EA
:10072000FF90EF90DF90CF900C948A111F910F9162
:10073000FF90EF90DF90CF90089568ED72E088EF22
:1007400092E00E947F128091D8029091D9029093FA
:100750008F0280938E020895E8EDF2E086E390E048
:10076000A0E0B0E080839183A283B38388E0848398
:10077000108681E081871286138614861586168678
:100780001786BF0188EF92E00C948A116AE088EF27
:1007900092E00C94DC0D0F931F93809116019091C1
:1007A0001701892B81F58091120190911301892BFA
:1007B00051F50E942F0C0091050310910603209122
:1007C000070330910803DC01CB01801B910BA20BC6
:1007D000B30B803D9740A105B10530F081E090E07A
:1007E00090930403809303038091FF029091000390
:1007F000892B99F40E94370A81E090E090930003DE
:100800008093FF020AC00E942F0C6093050370932F
:10081000060380930703909308031F910F91089597
:1008200080910303909104030197B1F480910E012C
:1008300090910F01892B81F480910C0190910D0111
:10084000019751F482E090E09093040380930303B6
:1008500010920D0110920C0108950F931F93CF93E6
:10086000DF93EC018B010E946808B801CE01DF9193
:10087000CF911F910F910C94AC0380910103909143
:100880000203009719F0019761F157C049E251E066
:1008900061E070E080E190E00E94BA06809114016E
:1008A00090911501892B61F48091160190911701A7
:1008B000019731F460E070E081E090E00E942D0447
:1008C0008091100190911101892BB9F5809112014D
:1008D00090911301019789F561E070E081E090E06B
:1008E0002AC049E251E062E070E080E190E00E94BD
:1008F000BA068091140190911501892B61F48091C1
:10090000160190911701019731F460E070E082E0E8
:1009100090E00E942D048091100190911101892B8B
:1009200061F48091120190911301019731F461E01B
:1009300070E082E090E00E942D0483E090E09093CC
:1009400004038093030308950F931F93CF93DF93C2
:100950008091F9029091FA02009721F0019709F431
:1009600065C0C4C00E942F0C0091FB021091FC02D4
:100970002091FD023091FE02DC01CB01801B910B26
:10098000A20BB30B00910401109105012091060107
:1009900030910701081719072A073B0708F0D5C04F
:1009A0000E942F0C0091FB021091FC022091FD028D
:1009B0003091FE02AB01BC01401B510B620B730B6B
:1009C0008091040190910501A0910601B091070169
:1009D000880F991FAA1FBB1F481759076A077B0773
:1009E00008F0B3C049E251E061E070E080E190E0DE
:1009F0000E94BA068091160190911701892B09F087
:100A000075C0C0911401D0911501C130D10509F014
:100A10006DC04BE251E061E070E080E190E00E9447
:100A2000BA06D093FA02C093F90260C00E942F0C5C
:100A30000091FB021091FC022091FD023091FE0218
:100A4000DC01CB01801B910BA20BB30B00910401C5
:100A5000109105012091060130910701081719072F
:100A60002A073B0708F0A0C00E942F0C0091FB0250
:100A70001091FC022091FD023091FE02AB01BC01FD
:100A8000401B510B620B730B809104019091050187
:100A9000A0910601B0910701880F991FAA1FBB1FE3
:100AA000481759076A077B0708F07EC049E251E002
:100AB00062E070E080E190E00E94BA068091160149
:100AC00090911701892B91F4809114019091150157
:100AD000019761F44BE251E062E070E080E190E068
:100AE0000E94BA061092FA021092F90280910E0149
:100AF00090910F01892B09F086C080910C01909193
:100B00000D01019709F07FC08091F9029091FA02DE
:100B10008230910509F477C0009741F0813091054A
:100B200049F4909302038093010304C010920203DE
:100B30001092010310920D0110920C0183E090E0DD
:100B400090930403809303035EC00E942F0C0091D6
:100B5000FB021091FC022091FD023091FE02AB01DC
:100B6000BC01401B510B620B730B809104019091EF
:100B70000501A0910601B0910701880F991FAA1FD6
:100B8000BB1F84179507A607B70758F40E942F0CC0
:100B90006093FB027093FC028093FD029093FE022F
:100BA00029CF4BE251E020CF0E942F0C0091FB0295
:100BB0001091FC022091FD023091FE02AB01BC01BC
:100BC000401B510B620B730B809104019091050146
:100BD000A0910601B0910701880F991FAA1FBB1FA2
:100BE00084179507A607B70758F40E942F0C609347
:100BF000FB027093FC028093FD029093FE025ECF95
:100C00004BE251E055CFDF91CF911F910F910895A5
:100C100080910A0190910B01892B81F48091080148
:100C200090910901019751F410920403109203036B
:100C30000E94B108109200031092FF020895CF9312
:100C40000E949501C0E08C2F0E9474016C2F0E94BD
:100C5000A106CF5FC132B9F7CF910C94860A80917B
:100C6000030390910403892B81F40E941F06809155
:100C7000120190911301892B41F480911001909100
:100C80001101019711F40C94A70A08958EE00E94B7
:100C9000760D90931301809312018FE00E94760DE0
:100CA000909317018093160180E10E94760D909336
:100CB0000F0180930E0181E10E94760D90930B014C
:100CC00080930A016AE070E080E090E00E94600C8E
:100CD0000E94CB030E9410048091030390910403AF
:100CE000029711F40E94A4048091030390910403DD
:100CF000039711F40E943D040E9408060E942F06EB
:100D00008091120190911301909311018093100131
:100D10008091160190911701909315018093140111
:100D200080910E0190910F0190930D0180930C0121
:100D300080910A0190910B01909309018093080121
:100D40000895E62FF0E0EE0FFF1FE95EFC4F918360
:100D500080830895CF93DF93EA01462F682F89E0BF
:100D600093E00E943113BE0189E093E0DF91CF91BF
:100D70000C94440BCF93DF93EA01462F682F89E050
:100D800093E00E943113BE0189E093E0DF91CF919F
:100D90000C946D13CF93DF93EA01462F682F89E0FF
:100DA00093E00E9431134AE050E0BE0189E093E0F5
:100DB000DF91CF910C94DE0B0F931F93CF93DF93B2
:100DC0009C01EB01FA018B01025011096AE070E00D
:100DD0000E94E117892B59F4C90164E670E00E9472
:100DE000E117892B81F4A901BF01CE010FC0C90110
:100DF00064E670E00E94E117892B29F4A901BF0184
:100E0000CE01019703C0A901BF01C801DF91CF91B5
:100E10001F910F910C94CA06CF93DF93C7E1D3E0E3
:100E200040E050E066E070E08A859B850E94DC0629
:100E300040E050E060E170E08E859F850E94DC0616
:100E400041E050E069E070E08A899B890E94DC06FD
:100E50004A895B8961E070E084E090E00E94CA0604
:100E60004E895F8961E070E08EE090E00E94CA06E2
:100E70004885598562E070E08EE090E00E94CA06E5
:100E80004881598162E070E084E090E0DF91CF9189
:100E90000C94CA06CF93DF93C7E1D3E041E050E062
:100EA00069E070E08A899B890E94DC0642E050E09C
:100EB00069E070E08C899D890E94DC0643E050E087
:100EC00069E070E0888D998DDF91CF910C94DC06FC
:100ED000CF93DF93C7E1D3E041E050E069E070E0F9
:100EE0008A859B850E94DC0642E050E069E070E064
:100EF0008C859D850E94DC0643E050E069E070E04F
:100F000088899989DF91CF910C94DC06CF93DF9388
:100F1000C7E1D3E041E050E069E070E08E8D9F8D45
:100F20000E94DC0642E050E069E070E08C8D9D8D0F
:100F30000E94DC0643E050E069E070E08A8D9B8D02
:100F4000DF91CF910C94DC06CF93DF93C7E1D3E020
:100F500041E050E069E070E08E819F810E94DC06F4
:100F600042E050E069E070E08C819D810E94DC06E7
:100F700043E050E069E070E08A819B81DF91CF918E
:100F80000C94DC068091370390913803009729F088
:100F9000019759F44FE251E002C04DE251E060E0A8
:100FA00070E085E090E00E94AA068091390390915C
:100FB0003A03009729F0019759F441E351E002C048
:100FC0004BE251E060E070E086E090E00E94AA060B
:100FD00040913B0350913C0360E070E088E090E07A
:100FE0000E94CA0680913D0390913E03009729F02C
:100FF000019759F44FE251E002C04DE251E061E047
:1010000070E085E090E00E94AA0680913F039091F5
:101010004003009729F0019759F441E351E002C0E1
:101020004BE251E061E070E086E090E00E94AA06A9
:1010300040913B0350913C0360E070E088E090E019
:101040000E94CA068091410390914203009729F0C3
:10105000019759F44FE251E002C04DE251E062E0E5
:1010600070E085E090E00E94AA0680914303909191
:101070004403009729F0019759F441E351E002C07D
:101080004BE251E062E070E086E090E00E94AA0648
:10109000409145035091460362E070E088E090E0A3
:1010A0000C94CA06CF93DF93C7E1D3E04A855B85F2
:1010B00062E070E081E190E00E94CA064A855B85AB
:1010C00061E070E081E190E0DF91CF910C94CA067D
:1010D0008130910501F56115710521F061307105CF
:1010E00079F0089586E090E09093220380932103A5
:1010F00046E050E062E070E081E190E00E94CA06C4
:1011000084E090E0909322038093210344E050E038
:1011100062E070E021C0029719F56115710521F0B8
:101120006130710579F0089586E090E09093220394
:101130008093210346E050E061E070E081E190E0BF
:101140000E94CA0684E090E09093220380932103DA
:1011500044E050E061E070E081E190E00C94CA0668
:10116000089581E090E0909316038093150389E041
:1011700093E00E94061346E951E060E070E080E0F1
:1011800090E00E94AA0642E651E060E070E089E04B
:1011900090E00E94BA064AE451E060E070E081E12C
:1011A00090E00E94BA0648E651E061E070E080E01D
:1011B00090E00E94AA0642E651E061E070E089E01A
:1011C00090E00E94BA064AE451E061E070E081E1FB
:1011D00090E00E94BA0643E351E062E070E080E0F4
:1011E00090E00E94BA0641E551E063E070E080E0E3
:1011F00090E00E94BA060C940C0789E093E00E94EC
:10120000061345E651E060E070E088E090E00E945F
:10121000BA064BE651E061E070E080E090E00E94A9
:10122000BA0642E651E061E070E08BE090E00E9497
:10123000BA0645E751E062E070E080E090E00E948D
:10124000BA064DE751E062E070E08BE090E00E946A
:10125000BA0640E851E063E070E080E090E00E9470
:10126000BA064AE851E063E070E08BE090E00C944D
:10127000BA0689E093E00E94061343E951E060E07A
:1012800070E088E090E00E94BA064BE651E061E031
:1012900070E080E090E00E94BA0642E651E061E032
:1012A00070E08BE090E00E94BA0645E751E062E012
:1012B00070E080E090E00E94BA064DE751E062E005
:1012C00070E08BE090E00E94BA0640E851E063E0F5
:1012D00070E080E090E00E94BA064AE851E063E0E6
:1012E00070E08BE090E00C94BA0689E093E00E94F5
:1012F000061349E951E060E070E088E090E00E9468
:10130000BA064BE651E061E070E080E090E00E94B8
:10131000BA0642E651E061E070E08BE090E00E94A6
:10132000BA0645E751E062E070E080E090E00E949C
:10133000BA064DE751E062E070E08BE090E00E9479
:10134000BA0640E851E063E070E080E090E00E947F
:10135000BA064AE851E063E070E08BE090E00C945C
:10136000BA0689E093E00E9406134AEA51E060E081
:1013700070E088E090E00E94BA064BE651E061E040
:1013800070E080E090E00E94BA0642E651E061E041
:1013900070E08BE090E00E94BA0645E751E062E021
:1013A00070E080E090E00E94BA064DE751E062E014
:1013B00070E08BE090E00E94BA0640E851E063E004
:1013C00070E080E090E00E94BA064AE851E063E0F5
:1013D00070E08BE090E00C94BA0689E093E00E9404
:1013E00006134DEB51E060E070E080E090E00E9479
:1013F000BA0642EC51E061E070E080E090E00E94CB
:10140000BA0648EC51E062E070E080E090E00E94B3
:10141000BA064EEC51E063E070E080E090E00E949C
:10142000BA060C94C20789E093E00E94061345EDCA
:1014300051E060E070E087E090E00E94BA064DED78
:1014400051E061E070E087E090E00E94BA064CEE67
:1014500051E062E070E084E090E00E94BA0647E06C
:1014600052E063E070E080E090E00C94BA0689E01E
:1014700093E00E9406134EE052E060E070E082E0EC
:1014800090E00E94BA0642E352E061E070E080E042
:1014900090E00E94BA0640E452E062E070E080E032
:1014A00090E00E94BA064DE751E061E070E083E110
:1014B00090E00E94BA060E94520887E090E0909364
:1014C000160380931503089589E093E00E94C114E8
:1014D00089E093E00E94C01264EF71E080E090E048
:1014E0000E94600C89E093E00E9406130E94130A98
:1014F00081E090E0909316038093150368EB7BE006
:1015000080E090E00E94600C0C94B108809115037B
:10151000909116038330910591F034F48130910558
:1015200051F0029751F008958530910561F04CF02B
:10153000069759F008950C940C070C944A070C94E4
:1015400068070C9486070C94A4070C94C20780913A
:1015500015039091160383309105C1F034F4813066
:10156000910551F0029769F0089585309105C1F019
:1015700094F00697D1F008950E94FD0882E090E073
:1015800018C00E94390983E090E013C00E947509D9
:1015900084E090E00EC00E94B10985E090E009C0AF
:1015A0000E94ED0986E090E004C00E94B10881E04D
:1015B00090E09093160380931503089524E044E18E
:1015C0006FE389E093E00C949D120E945C010E94FD
:1015D0007D010C94640A0E940B030E949D030C94ED
:1015E000460608950E94A70C0E94F10A0E94E50A8F
:1015F000C0E0D0E00E94EB0A2097E1F30E940000D7
:10160000F9CF80E090E008950895CF92DF92EF92B5
:10161000FF920F931F93CF93DF936C017A018B019D
:10162000C0E0D0E0CE15DF0581F0D8016D918D01CD
:10163000D601ED91FC910190F081E02DC601099554
:10164000892B11F02196EECF7E01C701DF91CF915A
:101650001F910F91FF90EF90DF90CF90089561154B
:10166000710579F0FB0101900020E9F73197AF0196
:10167000461B570BDC01ED91FC910280F381E02DBC
:10168000099480E090E008950C942F0BDC01ED911B
:10169000FC910190F081E02D09948F929F92AF927E
:1016A000BF92EF92FF920F931F93CF93DF93CDB72B
:1016B000DEB7A1970FB6F894DEBF0FBECDBF7C0199
:1016C000FA01CB0119A2223008F42AE08E010F5D45
:1016D0001F4F822E912CA12CB12CBF01A50194018A
:1016E0000E94F517F901CA01015011096A3010F47E
:1016F000605D01C0695CD8016C93232B242B252BE2
:1017000061F7B801C7010E942F0BA1960FB6F8949C
:10171000DEBF0FBECDBFDF91CF911F910F91FF9024
:10172000EF90BF90AF909F908F900895CF92DF92EF
:10173000EF92FF920F931F93CF93DF932115310503
:1017400081F4DC01ED91FC910190F081E02D642F9A
:10175000DF91CF911F910F91FF90EF90DF90CF908D
:1017600009942A30310501F577FF1DC06A017B011C
:10177000EC016DE20E94460B8C0144275527BA010B
:101780004C195D096E097F092AE0CE010E944D0BBC
:10179000800F911FDF91CF911F910F91FF90EF90DC
:1017A000DF90CF9008952AE0DF91CF911F910F91A4
:1017B000FF90EF90DF90CF900C944D0B9A01AB010E
:1017C000770F660B770B0C94960B1F920F920FB648
:1017D0000F9211242F933F938F939F93AF93BF93B7
:1017E0008091240390912503A0912603B0912703B3
:1017F0003091230323E0230F2D3720F40196A11D00
:10180000B11D05C026E8230F0296A11DB11D20932E
:1018100023038093240390932503A0932603B0937E
:1018200027038091280390912903A0912A03B09166
:101830002B030196A11DB11D8093280390932903CA
:10184000A0932A03B0932B03BF91AF919F918F91E7
:101850003F912F910F900FBE0F901F9018952FB7AB
:10186000F894609124037091250380912603909150
:1018700027032FBF08953FB7F894809128039091D4
:101880002903A0912A03B0912B0326B5A89B05C07C
:101890002F3F19F00196A11DB11D3FBFBA2FA92FEF
:1018A000982F8827820F911DA11DB11DBC01CD016C
:1018B00042E0660F771F881F991F4A95D1F7089558
:1018C0008F929F92AF92BF92CF92DF92EF92FF9250
:1018D0006B017C010E943B0C4B015C01C114D104E3
:1018E000E104F10401F10E94FD150E943B0CDC01B2
:1018F000CB0188199909AA09BB09883E9340A10523
:10190000B10560F321E0C21AD108E108F10888EEC0
:10191000880E83E0981EA11CB11CC114D104E104FF
:10192000F10419F7DBCFFF90EF90DF90CF90BF90DD
:10193000AF909F908F9008958230910538F0880F76
:10194000991F880F991F05970197F1F708957894CB
:1019500084B5826084BD84B5816084BD85B58260B4
:1019600085BD85B5816085BDEEE6F0E08081816052
:101970008083E1E8F0E01082808182608083808152
:1019800081608083E0E8F0E0808181608083E1EB2A
:10199000F0E0808184608083E0EBF0E08081816012
:1019A0008083EAE7F0E080818460808380818260C8
:1019B00080838081816080838081806880831092B1
:1019C000C1000895833081F028F4813099F082308D
:1019D000A1F008958730A9F08830B9F08430D1F4AF
:1019E000809180008F7D03C0809180008F778093ED
:1019F0008000089584B58F7702C084B58F7D84BD43
:101A000008958091B0008F7703C08091B0008F7DE2
:101A10008093B0000895CF93DF9390E0FC01E85EDF
:101A2000FD4F2491FC01E45DFD4F8491882361F119
:101A300090E0880F991FFC01EC5AFD4FC591D4919D
:101A4000FC01E65BFD4FA591B491611109C09FB700
:101A5000F8948881209582238883EC912E230BC0F3
:101A6000623061F49FB7F8948881322F30958323D8
:101A70008883EC912E2B2C939FBF06C08FB7F894D0
:101A8000E8812E2B28838FBFDF91CF9108951F937C
:101A9000CF93DF93282F30E0F901EC5FFD4F849165
:101AA000F901E85EFD4FD491F901E45DFD4FC49169
:101AB000CC23C1F0162F81110E94E20CEC2FF0E034
:101AC000EE0FFF1FE65BFD4FA591B4919FB7F89411
:101AD000111104C08C91D095D82302C0EC91DE2B5B
:101AE000DC939FBFDF91CF911F910895CF93DF9338
:101AF000282F30E0F901EC5FFD4F8491F901E85E99
:101B0000FD4FD491F901E45DFD4FC491CC2391F0D8
:101B100081110E94E20CEC2FF0E0EE0FFF1FE05C61
:101B2000FD4FA591B491EC91ED2381E090E021F47B
:101B300080E002C080E090E0DF91CF9108958EBDFB
:101B400000000DB407FEFDCF8EB50895FC01809115
:101B50002E03882399F03FB7F89480912E038130AB
:101B600059F48DB380932C032DB390912D03909550
:101B700092239DBB3FBF02C030932C0380E58CBDF8
:101B800081E08DBD60E080810C94470D61E0FC0137
:101B900080810E94470D80912E03882361F09FB7BA
:101BA000F89420912E0380912C03213019F48DBBE1
:101BB0009FBF08958FBF08951F93CF93DF93EC01CC
:101BC000162F0E94C314188361E0812F0E940B0D11
:101BD000CE01DF91CF911F910C94C60D1F93CF932F
:101BE000DF93EC01162F0E94A60D83E00E949F0D4B
:101BF000812F0E949F0D80E00E949F0D182FCE0123
:101C00000E94C60D812FDF91CF911F910895DF9221
:101C1000EF92FF920F931F93CF93DF938C01C62F08
:101C2000D42EE52EF22E0E94A60D83E00E949F0D79
:101C30008C2F0E949F0DCD2DDE2DCE018F0D911D7D
:101C40007C01CE15DF0529F080E00E949F0D89936D
:101C5000F8CFC801DF91CF911F910F91FF90EF90C6
:101C6000DF900C94C60D0F931F93CF93DF93EC017D
:101C7000062F142F0E94A60D82E00E949F0D802F38
:101C80000E949F0D812F0E949F0DCE01DF91CF9169
:101C90001F910F910C94C60DDF92EF92FF920F935C
:101CA0001F93CF93DF938C01C62FD42EE52EF22EF7
:101CB0000E94A60D82E00E949F0D8C2F0E949F0D16
:101CC000CD2DDE2DCE018F0D911D7C01CE15DF05B2
:101CD00021F089910E949F0DF9CFC801DF91CF912A
:101CE0001F910F91FF90EF90DF900C94C60DFF9223
:101CF0000F931F93CF93DF93EC01F62E042F122F37
:101D00000E94A60D85E00E949F0D8F2D0E949F0DC1
:101D1000802F0E949F0D812F0E949F0DCE01DF9189
:101D2000CF911F910F91FF900C94C60D1F93CF93ED
:101D3000DF93EC010E94A60D80EA0E949F0D80E0D7
:101D40000E949F0D182FCE010E94C60D812FDF919A
:101D5000CF911F910895CF92DF92EF92FF921F9340
:101D6000CF93DF93EC01162F262F40EE6FE00E94F9
:101D7000770E0E942F0C6B017C012AE0C20ED11C51
:101D8000E11CF11C0E942F0C6C157D058E059F0532
:101D900048F46EE0CE010E94EE0D807E1813F2CF63
:101DA00081E001C080E091E08927DF91CF911F9110
:101DB000FF90EF90DF90CF90089560E80C94AB0E09
:101DC00060E00C94AB0E0F931F93CF93DF938C01C5
:101DD000C62FD42F0E94DD0E8111B7C0D130A9F1DA
:101DE00008F464C0D23009F090C08C2F90E08031AC
:101DF000910508F08AC0FC01EC5CFF4F0C941718A9
:101E0000C7E8DFEB32C0C4E8D4EA87C0C5E8D2EE49
:101E100047E48CC0C7E8DFEB67C0C6E8D4EB64C01A
:101E2000C7E8DFEB65C0C6E8D4EB62C0C5E8D1EB1C
:101E30005FC0C6E8D4EB64C0C5E8D1EB61C0C2E8BE
:101E4000D0E95EC0C0E8D0E85BC08C2F90E0803164
:101E5000910508F05AC0FC01EC5BFF4F0C94171879
:101E6000C7E8DFEF56C0C7E8DFEF4FE05FC0C5E867
:101E7000D1EF4EE45BC0C7E8DFEF4FC0C7E8DAEF51
:101E80004CC0C7E8DFEF30C0C7E0DEEB2DC0C6E8CE
:101E9000D0EF2AC0C7E8DAEF2BC0C5E8D1EF2CC0DD
:101EA000C6E8D0EF2DC0C2E8D0ED2AC08C2F90E05C
:101EB000FC013497EC30F10540F5EC5AFF4F0C94DF
:101EC0001718C7E8DFEF02C0C7E8DAEF49E02EC015
:101ED000C7E8DFEF02C0C7E8DEEF44E027C0C7E88D
:101EE000DAEFFBCFC7E8DAEF43E020C0C7E8DFEF67
:101EF00041E01CC0C6E8DBEF41E418C0C7E8DAEFF8
:101F000040E014C0C2E8D9EDFBCF81E01EC0C7E8B5
:101F1000DFEB4FE10BC0C7E8DFEB47E007C0C7E8E6
:101F2000DFEF4FE303C0C7E8DFEF4BE06AE2C80131
:101F30000E94330E4D2F69E2C8010E94330E4C2FD0
:101F400068E2C8010E94330E80E0DF91CF911F91BB
:101F50000F9108950F931F93FB014423B1F0038366
:101F60001283890122273327902F9C71802F837041
:101F700048E0949F800D11248860818355E0169578
:101F800007955A95E1F700830DC0C80123E09695A7
:101F900087952A95E1F780830295000F007E0183E3
:101FA000138212821F910F9108958F929F92AF9288
:101FB000BF92CF92DF92EF92FF920F931F93CF9336
:101FC000DF9300D000D0CDB7DEB77C01D62EC42E73
:101FD000480159010E94DD0E81111BC09501840149
:101FE0004C2DBE016F5F7F4FC7010E94AA0FDD20FD
:101FF00029F081E0D8120CC064E201C060E224E064
:10200000AE014F5F5F4FC7010E944C0E80E001C0E0
:1020100081E00F900F900F900F90DF91CF911F9163
:102020000F91FF90EF90DF90CF90BF90AF909F9077
:102030008F9008958F929F92AF92BF92CF92DF922E
:10204000EF92FF920F931F93CF93DF9300D000D0B6
:10205000CDB7DEB76C01F62EE42E480159010E947F
:10206000DD0E811136C082E0F816A9F08F1540F020
:10207000FF20D1F081E0F8122BC044E0F42E15C00F
:1020800084E0F81671F0F81648F085E0F81220C0E8
:1020900088E1F82E0AC038E0F32E07C020E1F22EC6
:1020A00004C094E1F92E01C0F12C950184014E2D5C
:1020B000BE016F5F7F4FC6010E94AA0F24E0AE01F0
:1020C0004F5F5F4F6F2DC6010E944C0E80E001C034
:1020D00081E00F900F900F900F90DF91CF911F91A3
:1020E0000F91FF90EF90DF90CF90BF90AF909F90B7
:1020F0008F900895AF92BF92CF92DF92EF92FF92AE
:102100000F931F93CF93DF93CDB7DEB764970FB6CE
:10211000F894DEBF0FBECDBF7C010E94A60D80ECFF
:102120000E949F0DC7010E94C60D6AE070E080E02A
:1021300090E00E94600C8E010F5F1F4F8EE0F8014F
:1021400011928A95E9F72EE0A80160E3C7010E9489
:102150004C0E2EE0A80160E4C7010E944C0E2EE058
:10216000A80160E5C7010E944C0E40E060E6C7018F
:102170000E94330E40E060E7C7010E94330E43EA3D
:102180006BE2C7010E94330E24E047E660E6C70118
:102190000E94770E21E047E660E7C7010E94770EB4
:1021A00086E0E8E1F1E0DE011F9601900D928A954C
:1021B000E1F75E01FFE0AF0EB11CC12CD12CF5019F
:1021C00061915F0141E0F1E0CF16D10409F040E0F8
:1021D00000E010E09801C7010E941A10811119C097
:1021E0008FEFC81AD80AE6E0CE16D10441F700E016
:1021F00010E0980141E060E0C7010E94D50F811115
:1022000008C000E010E0980141E061E0C7010E94D1
:10221000D50F64960FB6F894DEBF0FBECDBFDF9129
:10222000CF911F910F91FF90EF90DF90CF90BF90D3
:10223000AF9008954F925F926F927F92AF92BF924C
:10224000CF92DF92EF92FF920F931F93CF93DF9382
:10225000CDB7DEB72D970FB6F894DEBF0FBECDBF5A
:10226000FA012481293008F03FC06A015C01E62EA2
:10227000F12C4080518062807380930182013F7114
:1022800041E0BE016F5F7F4F0E94AA0FF6011481EB
:10229000812F76FC80648D83412F50E0B601685F0A
:1022A0007F4FCE0106960E94621925E0210F87011B
:1022B000000F111F0E0D1F1D0A591D4FAE014F5F5C
:1022C0005F4FF8016181C5010E944C0EF801108139
:1022D00028E048E0612FC5010E94770E612FC501FB
:1022E0000E94EE0D807709F084E02D960FB6F894E9
:1022F000DEBF0FBECDBFDF91CF911F910F91FF9039
:10230000EF90DF90CF90BF90AF907F906F905F90F5
:102310004F9008959F92AF92BF92CF92DF92EF922B
:10232000FF920F931F93CF93DF9300D01F92CDB7EF
:10233000DEB7FB0124812930E8F57B018C01809117
:102340001E0190911F01A091200189839A83AB8384
:10235000CE0101966C015E0194E0A90EB11CF6015C
:1023600091906F01292D30E0F901EE0FFF1F2E0F24
:102370003F1FF901EA59FD4F6081C8010E94EE0D2F
:1023800083FD13C0A701692DC8010F900F900F9016
:10239000DF91CF911F910F91FF90EF90DF90CF9041
:1023A000BF90AF909F900C941A11CA14DB04B9F639
:1023B00082E001C084E00F900F900F90DF91CF91E9
:1023C0001F910F91FF90EF90DF90CF90BF90AF9053
:1023D0009F9008957F928F929F92AF92BF92CF92DB
:1023E000DF92EF92FF920F931F93CF93DF9300D072
:1023F00000D01F92CDB7DEB74C015A0124E0629F96
:1024000080011124F801E25AFD4F25E0AE014F5F33
:102410005F4F61810E94070E8A819981C82ED12C5D
:1024200045E0D594C7944A95E1F7E8E09E9FC00C3B
:10243000D11C11240D2C000CEE08FF0883FF20C0D6
:1024400092E0CC0CDD1CEE1CFF1C9A95D1F783703A
:10245000C80ED11CE11CF11CFE2CED2CDC2CCC2474
:102460008B81C80ED11CE11CF11CFE2CED2CDC2C48
:10247000CC248C81C80ED11CE11CF11C6894F7F8A7
:102480008D818F70782EF8E0F81728F1F801E25A64
:10249000FD4F6081C4010E94EE0D83FF02C068946D
:1024A000F6F8F501C082D182E282F3827482A5013E
:1024B000485F5F4F025A1D4F272DF8016281C4010A
:1024C0000E94070E20E0F80143816CE2C4010E94E3
:1024D000770E80E001C081E00F900F900F900F9079
:1024E0000F90DF91CF911F910F91FF90EF90DF90B0
:1024F000CF90BF90AF909F908F907F9008950F9353
:102500001F93CF93DF93EC018B010E94960E80FF07
:1025100003C0A80160E004C081FF09C0A80161E018
:10252000CE01DF91CF911F910F910C94EA1185E0BC
:10253000DF91CF911F910F910895FC0113821282B8
:1025400083E792E0918380836483418722871386A7
:1025500008951F93CF93DF93EC01162F6C8180E3D6
:1025600093E00E94D9156B85612B80E393E00E9474
:10257000881580E393E0DF91CF911F910C94F615BD
:1025800028E0FC01238760E00C94A9120F931F93AD
:10259000CF938C01C62F64600E94A91281E090E065
:1025A0000E949C0C6C2F6B7FC8010E94A91282E3D1
:1025B00090E0CF911F910F910C949C0C1F93CF939F
:1025C000DF93EC01162F0E94A912612FCE01DF913B
:1025D000CF911F910C94C6120F931F93CF93DF934B
:1025E0008C01C62FD42F607F642B0E94DE1280E105
:1025F000C89FB00111246D2BC801DF91CF911F91AD
:102600000F910C94DE1240E00C94EC12CF93DF9308
:10261000EC0168E00E94031388EE93E00E949C0C9A
:1026200067E1CE010E94031388EE93E00E949C0CA8
:1026300061E0CE010E94031388EE93E00E949C0C9F
:102640006CE0CE010E94031388EE93E0DF91CF91FE
:102650000C949C0C62E00E94031380ED97E00C94B4
:102660009C0CCF93DF93CDB7DEB728970FB6F894C5
:10267000DEBF0FBECDBF9C0188E0E1E2F1E0DE01EC
:10268000119601900D928A95E1F7F90180858417E2
:1026900010F44FEF480FFE013196E40FF11DE40FE7
:1026A000F11D9081690F6068C90128960FB6F894F2
:1026B000DEBF0FBECDBFDF91CF910C940313FC01A1
:1026C0006681262F246026836C600C94031341E0FE
:1026D0000E94EC1281E090E008950F931F93CF9336
:1026E000DF93EC018B01F80161918F01662309F4FE
:1026F000D1C0862F90E0FC01F097E23AF10508F096
:10270000C4C0E05AFF4F0C94171841E060E7BEC008
:1027100041E063E6BBC041E06FEBB8C041E069E770
:10272000B5C041E064EEB2C041E068E7AFC041E04F
:1027300065EEACC041E060ECA9C041E061ECA6C030
:1027400041E066EEA3C041E062ECA0C041E063EC72
:102750009DC041E064EC9AC041E065EC97C041E067
:1027600066EC94C041E067EC91C041E061E48EC04A
:1027700041E060EA8BC041E062E488C041E061EA88
:1027800085C041E060EE82C041E065E47FC041E089
:1027900063EA7CC041E064EA79C041E065EA76C062
:1027A00041E066EA73C041E06BE470C041E067EA73
:1027B0006DC041E06DE46AC041E068E467C041E09B
:1027C0006FE464C041E068EA61C041E060E55EC07A
:1027D00041E063E45BC041E064E558C041E069EA80
:1027E00055C041E06AEA52C041E068E54FC041E0AF
:1027F00061EE4CC041E06BEA49C041E06CEA46C082
:1028000041E062EE43C041E06DEA40C041E06EEA63
:102810003DC041E062E63AC041E06FEA37C041E0C6
:1028200060EB34C041E061EB31C041E061E62EC0B5
:1028300041E062EB2BC041E063EB28C041E064EB78
:1028400025C041E063EE22C041E065E61FC041E0E3
:1028500066EB1CC041E067EB19C041E068EB16C0B5
:1028600041E069EB13C041E06AEB10C041E06BEB63
:102870000DC041E06CEB0AC041E06DEB07C041E0E8
:102880006FE604C041E06EEB01C041E0CE010E9462
:10289000EC1229CFDF91CF911F910F910895CF9323
:1028A000DF93EC01423018F08D8188608D8348877A
:1028B000222329F0413019F48D8184608D8362E3F5
:1028C00070E080E090E00E94600C6B85CE010E9479
:1028D000A91268EE73E080E090E00E94600C60E076
:1028E000CE010E94DE1284E690E00E949C0C60E023
:1028F000CE010E94DE1284E690E00E949C0C60E013
:10290000CE010E94DE1284E690E00E949C0C60E002
:10291000CE010E94DE1284E690E00E949C0C60E0F2
:10292000CE010E94DE1286E990E00E949C0C60E2DB
:10293000CE010E94DE126D816062CE010E940313FF
:1029400084E08E83CE010E945F1382E08F8366E075
:10295000CE010E940313CE01DF91CF910C942A1374
:10296000CF93DF93EC0180E393E00E94C71582E0F0
:102970008D8320E04A856985CE01DF91CF910C944B
:102980004F140C94B014CF93CFB7F89480912F03C9
:10299000811127C0E6E3F2E08491E2E2F2E0949153
:1029A000E82FF0E0EE0FFF1FEC5AFD4FA591B49118
:1029B000EC91E92321F461E08AE00E94470D61E097
:1029C0008AE00E940B0D8CB580618CBD8CB5806453
:1029D0008CBD61E08DE00E940B0D61E08BE00E94F8
:1029E0000B0D80912F038F5F80932F03CFBFCF916B
:1029F00008958091640390E020916503821B910902
:102A000008959091650380916403981750F4E92F1D
:102A1000F0E0EA59FC4F208130E09F5F909365031E
:102A200002C02FEF3FEFC9010895E0916503809147
:102A30006403E81730F4F0E0EA59FC4F808190E03D
:102A400008958FEF9FEF08950895CF93DF93EC01E2
:102A5000E0913C03F0913D033097F1F090916503D4
:102A6000809164039817C0F090E0292F30E026177A
:102A7000370754F4DE01A20FB31F4C91D901AA59B4
:102A8000BC4F4C939F5FF1CF10926503609364033A
:102A9000CB01DF91CF910994DF91CF910895E0911F
:102AA0003E03F0913F03309729F0109242031092B9
:102AB000410309940895CF92DF92EF92FF920F9312
:102AC0001F93CF93DF937C01CB018A0120914003B8
:102AD000222389F0EB016B01C40ED51ECC15DD0558
:102AE00069F06991D701ED91FC910190F081E02DA1
:102AF000C7010995F3CF642F0E947216C801DF91B8
:102B0000CF911F910F91FF90EF90DF90CF9008959C
:102B1000CF93DF931F92CDB7DEB769832091400337
:102B20002223D1F020914103203240F021E030E017
:102B3000FC013383228380E090E015C08091420342
:102B4000E82FF0E0ED5BFC4F998190838F5F8093DD
:102B500042038093410305C061E0CE0101960E94CB
:102B6000721681E090E00F90DF91CF910895FC0103
:102B70001382128288EE93E0A0E0B0E08483958314
:102B8000A683B7838FE792E09183808308951092A4
:102B900065031092640310924203109241030E9455
:102BA000FE158FE495E10E949F1685E295E10C9455
:102BB0009A1681E08093400360936303109242036E
:102BC0001092410308950F93062F21E04091410395
:102BD00063E473E0809163030E941C161092420329
:102BE00010924103109240030F91089561E00C94FC
:102BF000E31580E393E00C94B71508951092F30366
:102C000081E08093F1031092F00361E082E10E9481
:102C1000470D61E083E10E94470DE9EBF0E0808120
:102C20008E7F808380818D7F808388E48093B8004D
:102C300085E48093BC0008950F93413208F04AC0A8
:102C40009091F3039111FCCF32E03093F3030093A2
:102C5000F1033FEF309386031092CB034093CA03F6
:102C6000562FACECB3E0FB013E2F351B341718F4A4
:102C700031913D93F9CF1092F2033091F203880F16
:102C8000832B8093F2038091F003813061F41092E2
:102C9000F0038091F2038093BB008091BC0083FD20
:102CA000F8CF85EC01C085EE8093BC00222321F093
:102CB0008091F3038230D1F3809186038F3F79F0C6
:102CC00080918603803241F080918603803331F019
:102CD00094E005C091E003C092E001C093E0892F29
:102CE0000F9108954091A803262F30E0240F311D45
:102CF00021323105DCF42091F3032430C9F4FC01C6
:102D000080E090E0861758F43091A8032191DC010F
:102D1000A655BC4FA30FB11D2C930196F3CF809104
:102D2000A803680F6093A80380E0089581E00895E8
:102D300082E008959093ED038093EC0308959093BF
:102D4000EF038093EE03089585ED8093BC0080919E
:102D5000BC0084FDFCCF1092F303089585EC8093B2
:102D6000BC001092F30308951F920F920FB60F92BA
:102D700011242F933F934F935F936F937F938F9380
:102D80009F93AF93BF93EF93FF938091B900887F98
:102D9000803609F49EC078F5883209F45DC090F45D
:102DA000803109F456C038F4882309F4F5C088301E
:102DB00009F44FC0F5C0883109F44EC0803209F4DF
:102DC0005FC0EEC0803409F46AC058F4803309F45F
:102DD00057C0883309F0E4C0809386030E94AE1682
:102DE000DFC0803509F44FC0883509F45DC08834F0
:102DF00009F0D6C0D3C0883909F4C4C0A8F4883714
:102E000009F467C038F4883609F463C0803709F4E0
:102E100060C0C6C0883809F4B5C0803909F45FC005
:102E2000803809F0BDC05BC0803B09F483C038F432
:102E3000803A09F466C0883A09F47CC0B1C0803C8D
:102E400009F4A4C0883C09F4A1C0883B09F487C0F8
:102E5000A7C08091F20310C09091CB038091CA0368
:102E6000981770F5E091CB0381E08E0F8093CB0330
:102E7000F0E0E453FC4F80818093BB0085EC83C07D
:102E8000809386038BC0E091CB0381E08E0F80930B
:102E9000CB038091BB00F0E0E453FC4F8083909122
:102EA000CB038091CA036BC0E091CB0381E08E0F0E
:102EB0008093CB038091BB00F0E0E453FC4F808310
:102EC0008091F10381116AC081E08093F00384EA6C
:102ED0005EC083E08093F30310928703CFCF80918D
:102EE0008703803208F04EC0E091870381E08E0FA7
:102EF000809387038091BB00F0E0E857FC4F80830C
:102F0000BDCF0E94AE1680918703803230F4E091ED
:102F10008703F0E0E857FC4F10826091870370E070
:102F2000E091EC03F091ED0388E893E009951092AD
:102F3000870336C084E08093F3031092A9031092B4
:102F4000A803E091EE03F091EF0309958091A803A7
:102F5000811105C081E08093A8031092AA03E0913B
:102F6000A90381E08E0F8093A903F0E0E655FC4FA2
:102F700080818093BB009091A9038091A80398174A
:102F800008F47CCF85E88093BC000AC085EC809370
:102F9000BC001092F30304C0109286030E94A41692
:102FA000FF91EF91BF91AF919F918F917F916F9121
:102FB0005F914F913F912F910F900FBE0F901F90F7
:102FC000189597FB072E16F4009407D077FD09D0CB
:102FD0000E941D1807FC05D03EF4909581959F4FE7
:102FE0000895709561957F4F0895A1E21A2EAA1B4E
:102FF000BB1BFD010DC0AA1FBB1FEE1FFF1FA217A9
:10300000B307E407F50720F0A21BB30BE40BF50BA5
:10301000661F771F881F991F1A9469F7609570952E
:10302000809590959B01AC01BD01CF010895EE0FF5
:10303000FF1F0590F491E02D0994AA1BBB1B51E1E1
:1030400007C0AA1FBB1FA617B70710F0A61BB70B18
:10305000881F991F5A95A9F780959095BC01CD01BD
:1030600008950E9438186894B1110C94EF180895CF
:103070000E94D41888F09F5798F0B92F9927B7511C
:10308000B0F0E1F0660F771F881F991F1AF0BA950C
:10309000C9F714C0B13091F00E94EE18B1E0089564
:1030A0000C94EE18672F782F8827B85F39F0B93F56
:1030B000CCF3869577956795B395D9F73EF49095BF
:1030C0008095709561957F4F8F4F9F4F0895E8943D
:1030D00009C097FB3EF490958095709561957F4F60
:1030E0008F4F9F4F9923A9F0F92F96E9BB2793950E
:1030F000F695879577956795B795F111F8CFFAF41E
:10310000BB0F11F460FF1BC06F5F7F4F8F4F9F4F4E
:1031100016C0882311F096E911C0772321F09EE8AC
:10312000872F762F05C0662371F096E8862F70E012
:1031300060E02AF09A95660F771F881FDAF7880FEC
:103140009695879597F9089597F99F6780E870E0BD
:1031500060E008959FEF80EC089500240A9416160D
:10316000170618060906089500240A941216130675
:10317000140605060895092E0394000C11F4882303
:1031800052F0BB0F40F4BF2B11F460FF04C06F5F1F
:103190007F4F8F4F9F4F089557FD9058440F551FF5
:1031A00059F05F3F71F04795880F97FB991F61F0C9
:1031B0009F3F79F087950895121613061406551F40
:1031C000F2CF4695F1DF08C0161617061806991FAC
:1031D000F1CF86957105610508940895E894BB27A1
:1031E00066277727CB0197F908950E9408190C9458
:1031F000BB180E94AD1838F00E94B41820F0952337
:1032000011F00C94A4180C94AA1811240C94EF1823
:103210000E94CC1870F3959FC1F3950F50E0551F95
:10322000629FF001729FBB27F00DB11D639FAA271B
:10323000F00DB11DAA1F649F6627B00DA11D661F6A
:10324000829F2227B00DA11D621F739FB00DA11D8B
:10325000621F839FA00D611D221F749F3327A00D45
:10326000611D231F849F600D211D822F762F6A2FE1
:1032700011249F5750409AF0F1F088234AF0EE0F46
:10328000FF1FBB1F661F771F881F91505040A9F773
:103290009E3F510580F00C94A4180C94EF185F3FEA
:1032A000E4F3983ED4F3869577956795B795F795AF
:1032B000E7959F5FC1F7FE2B880F911D9695879527
:1032C00097F90895FB01DC0102C001900D92415075
:0A32D0005040D8F70895F894FFCF9E
:1032DA0001000100E80300000100010001000100F3
:1032EA0001000100010001000001020304050001C0
:1032FA000200004000140054005F0020002D002B43
:10330A00002100D093D0B5D0BD202020202020D08D
:10331A00BED0B12FD0BC20202020D0BAD092D182EA
:10332A0000D0A3D09AD098203630303020D0BED0EA
:10333A00BC2FD0920044432F444300D09DD0B0D03C
:10334A00BFD1803A00D0A2D0BED0BA3A00D0900005
:10335A00D0A2D0B5D0BCD0BF3A00D0B3D180D0B0C3
:10336A00D0B40044432F414300D098D0BDD0B2D04E
:10337A00B5D180D182D0BED18000D093D0B5D0BD96
:10338A00D0B5D180D0B0D182D0BED180003237D072
:10339A009200323230D09200343030D09200D0A332
:1033AA00D09AD0980052554252554B5300D0A1D0D2
:1033BA00B8D181D182D0B5D0BCD0B000D0ADD0BD0B
:1033CA00D0B5D180D0B3D0BED0BFD0B8D182D0B022
:1033DA00D0BDD0B8D18F00765F302E303100D09872
:1033EA00D0B7D0BCD0B5D0BDD0B5D0BDD0B8D0B58F
:1033FA0020D0BDD0B0D181D182D180D0BED0B5D0BD
:10340A00BA00D0A2D0BED0BA2044432F44433A00D7
:10341A00D09CD0B0D0BAD1812ED0BCD0BED0BCD036
:10342A00B5D0BDD18220D0B3D0B5D0BD3A0060614D
:10343A00660170717602303136404146505156006D
:10344A000000006713050B010B040B000000008845
:0E345A00155B15010B2415F91401151515004D
:00000001FF
